{
  "address": "0x978203B07FE05Bc3C5d14ce65946DD3119E2b54F",
  "abi": [
    {
      "inputs": [
        {
          "internalType": "address",
          "name": "priceFeed",
          "type": "address"
        },
        {
          "internalType": "address",
          "name": "vrfCoordinatorV2",
          "type": "address"
        },
        {
          "internalType": "uint64",
          "name": "subscriptionId",
          "type": "uint64"
        },
        {
          "internalType": "bytes32",
          "name": "gasLane",
          "type": "bytes32"
        },
        {
          "internalType": "uint32",
          "name": "callbackGasLimit",
          "type": "uint32"
        },
        {
          "internalType": "address",
          "name": "hub",
          "type": "address"
        },
        {
          "internalType": "address",
          "name": "moduleGlobals",
          "type": "address"
        },
        {
          "internalType": "address",
          "name": "poolAddressesProvider",
          "type": "address"
        },
        {
          "internalType": "address",
          "name": "wmaticTokenAddress",
          "type": "address"
        },
        {
          "internalType": "address",
          "name": "awmaticTokenAddress",
          "type": "address"
        }
      ],
      "stateMutability": "nonpayable",
      "type": "constructor"
    },
    {
      "inputs": [],
      "name": "Flowmi__CantFlowmiFollowYourself",
      "type": "error"
    },
    {
      "inputs": [],
      "name": "Flowmi__SendMoreToEnterFlowmi",
      "type": "error"
    },
    {
      "inputs": [],
      "name": "Flowmi__TransferFailed",
      "type": "error"
    },
    {
      "inputs": [],
      "name": "InitParamsInvalid",
      "type": "error"
    },
    {
      "inputs": [],
      "name": "NotHub",
      "type": "error"
    },
    {
      "inputs": [
        {
          "internalType": "address",
          "name": "have",
          "type": "address"
        },
        {
          "internalType": "address",
          "name": "want",
          "type": "address"
        }
      ],
      "name": "OnlyCoordinatorCanFulfill",
      "type": "error"
    },
    {
      "anonymous": false,
      "inputs": [
        {
          "indexed": true,
          "internalType": "address",
          "name": "userAddr",
          "type": "address"
        },
        {
          "indexed": false,
          "internalType": "uint256",
          "name": "amount",
          "type": "uint256"
        }
      ],
      "name": "Deposit",
      "type": "event"
    },
    {
      "anonymous": false,
      "inputs": [
        {
          "indexed": false,
          "internalType": "uint256",
          "name": "requestId",
          "type": "uint256"
        },
        {
          "indexed": false,
          "internalType": "uint256[]",
          "name": "randomWords",
          "type": "uint256[]"
        }
      ],
      "name": "RequestFulfilled",
      "type": "event"
    },
    {
      "anonymous": false,
      "inputs": [
        {
          "indexed": false,
          "internalType": "uint256",
          "name": "requestId",
          "type": "uint256"
        },
        {
          "indexed": false,
          "internalType": "uint32",
          "name": "numWords",
          "type": "uint32"
        }
      ],
      "name": "RequestSent",
      "type": "event"
    },
    {
      "anonymous": false,
      "inputs": [
        {
          "indexed": true,
          "internalType": "address",
          "name": "userAddr",
          "type": "address"
        },
        {
          "indexed": false,
          "internalType": "uint256",
          "name": "amount",
          "type": "uint256"
        }
      ],
      "name": "Withdraw",
      "type": "event"
    },
    {
      "stateMutability": "payable",
      "type": "fallback"
    },
    {
      "inputs": [],
      "name": "HUB",
      "outputs": [
        {
          "internalType": "address",
          "name": "",
          "type": "address"
        }
      ],
      "stateMutability": "view",
      "type": "function"
    },
    {
      "inputs": [],
      "name": "MODULE_GLOBALS",
      "outputs": [
        {
          "internalType": "address",
          "name": "",
          "type": "address"
        }
      ],
      "stateMutability": "view",
      "type": "function"
    },
    {
      "inputs": [
        {
          "internalType": "address",
          "name": "",
          "type": "address"
        }
      ],
      "name": "balances",
      "outputs": [
        {
          "internalType": "uint256",
          "name": "",
          "type": "uint256"
        }
      ],
      "stateMutability": "view",
      "type": "function"
    },
    {
      "inputs": [
        {
          "internalType": "uint256",
          "name": "profileId",
          "type": "uint256"
        },
        {
          "internalType": "address",
          "name": "from",
          "type": "address"
        },
        {
          "internalType": "address",
          "name": "to",
          "type": "address"
        },
        {
          "internalType": "uint256",
          "name": "followNFTTokenId",
          "type": "uint256"
        }
      ],
      "name": "followModuleTransferHook",
      "outputs": [],
      "stateMutability": "nonpayable",
      "type": "function"
    },
    {
      "inputs": [],
      "name": "getBalance",
      "outputs": [
        {
          "internalType": "uint256",
          "name": "",
          "type": "uint256"
        }
      ],
      "stateMutability": "view",
      "type": "function"
    },
    {
      "inputs": [],
      "name": "getFlowmiCost",
      "outputs": [
        {
          "internalType": "uint256",
          "name": "",
          "type": "uint256"
        }
      ],
      "stateMutability": "pure",
      "type": "function"
    },
    {
      "inputs": [],
      "name": "getFlowmiState",
      "outputs": [
        {
          "internalType": "uint256",
          "name": "",
          "type": "uint256"
        }
      ],
      "stateMutability": "pure",
      "type": "function"
    },
    {
      "inputs": [
        {
          "internalType": "address",
          "name": "_profileid",
          "type": "address"
        },
        {
          "internalType": "uint256",
          "name": "_index",
          "type": "uint256"
        }
      ],
      "name": "getFollowerOfIndex",
      "outputs": [
        {
          "internalType": "address",
          "name": "",
          "type": "address"
        }
      ],
      "stateMutability": "view",
      "type": "function"
    },
    {
      "inputs": [
        {
          "internalType": "address",
          "name": "_profileid",
          "type": "address"
        }
      ],
      "name": "getFollowsToRaffle",
      "outputs": [
        {
          "internalType": "uint256",
          "name": "",
          "type": "uint256"
        }
      ],
      "stateMutability": "view",
      "type": "function"
    },
    {
      "inputs": [
        {
          "internalType": "address",
          "name": "_profileid",
          "type": "address"
        }
      ],
      "name": "getFundsInThisRaffle",
      "outputs": [
        {
          "internalType": "uint256",
          "name": "",
          "type": "uint256"
        }
      ],
      "stateMutability": "view",
      "type": "function"
    },
    {
      "inputs": [],
      "name": "getGoal",
      "outputs": [
        {
          "internalType": "uint256",
          "name": "",
          "type": "uint256"
        }
      ],
      "stateMutability": "pure",
      "type": "function"
    },
    {
      "inputs": [],
      "name": "getLastWinnerAddress",
      "outputs": [
        {
          "internalType": "address",
          "name": "",
          "type": "address"
        }
      ],
      "stateMutability": "view",
      "type": "function"
    },
    {
      "inputs": [],
      "name": "getLastWinnerIndex",
      "outputs": [
        {
          "internalType": "uint256",
          "name": "",
          "type": "uint256"
        }
      ],
      "stateMutability": "view",
      "type": "function"
    },
    {
      "inputs": [
        {
          "internalType": "address",
          "name": "_profileid",
          "type": "address"
        }
      ],
      "name": "getNumberOfFollowers",
      "outputs": [
        {
          "internalType": "uint256",
          "name": "",
          "type": "uint256"
        }
      ],
      "stateMutability": "view",
      "type": "function"
    },
    {
      "inputs": [],
      "name": "getPool",
      "outputs": [
        {
          "internalType": "address",
          "name": "",
          "type": "address"
        }
      ],
      "stateMutability": "view",
      "type": "function"
    },
    {
      "inputs": [],
      "name": "getPriceFeed",
      "outputs": [
        {
          "internalType": "uint256",
          "name": "",
          "type": "uint256"
        }
      ],
      "stateMutability": "view",
      "type": "function"
    },
    {
      "inputs": [
        {
          "internalType": "uint256",
          "name": "profileId",
          "type": "uint256"
        }
      ],
      "name": "getProfileData",
      "outputs": [
        {
          "components": [
            {
              "internalType": "address",
              "name": "currency",
              "type": "address"
            },
            {
              "internalType": "uint256",
              "name": "amount",
              "type": "uint256"
            },
            {
              "internalType": "address",
              "name": "recipient",
              "type": "address"
            }
          ],
          "internalType": "struct ProfileData",
          "name": "",
          "type": "tuple"
        }
      ],
      "stateMutability": "view",
      "type": "function"
    },
    {
      "inputs": [
        {
          "internalType": "address",
          "name": "_profileid",
          "type": "address"
        }
      ],
      "name": "getProfileToRaffles",
      "outputs": [
        {
          "internalType": "uint256",
          "name": "",
          "type": "uint256"
        }
      ],
      "stateMutability": "view",
      "type": "function"
    },
    {
      "inputs": [
        {
          "internalType": "address",
          "name": "_profileid",
          "type": "address"
        }
      ],
      "name": "getProfileToWins",
      "outputs": [
        {
          "internalType": "uint256",
          "name": "",
          "type": "uint256"
        }
      ],
      "stateMutability": "view",
      "type": "function"
    },
    {
      "inputs": [
        {
          "internalType": "uint256",
          "name": "_requestId",
          "type": "uint256"
        }
      ],
      "name": "getRequestStatus",
      "outputs": [
        {
          "internalType": "bool",
          "name": "fulfilled",
          "type": "bool"
        },
        {
          "internalType": "uint256[]",
          "name": "randomWords",
          "type": "uint256[]"
        }
      ],
      "stateMutability": "view",
      "type": "function"
    },
    {
      "inputs": [
        {
          "internalType": "address",
          "name": "_profileid",
          "type": "address"
        }
      ],
      "name": "getTotalFundedProfile",
      "outputs": [
        {
          "internalType": "uint256",
          "name": "",
          "type": "uint256"
        }
      ],
      "stateMutability": "view",
      "type": "function"
    },
    {
      "inputs": [
        {
          "internalType": "address",
          "name": "_userAddress",
          "type": "address"
        }
      ],
      "name": "getUserAccountData",
      "outputs": [
        {
          "internalType": "uint256",
          "name": "totalCollateralBase",
          "type": "uint256"
        },
        {
          "internalType": "uint256",
          "name": "totalDebtBase",
          "type": "uint256"
        },
        {
          "internalType": "uint256",
          "name": "availableBorrowsBase",
          "type": "uint256"
        },
        {
          "internalType": "uint256",
          "name": "currentLiquidationThreshold",
          "type": "uint256"
        },
        {
          "internalType": "uint256",
          "name": "ltv",
          "type": "uint256"
        },
        {
          "internalType": "uint256",
          "name": "healthFactor",
          "type": "uint256"
        }
      ],
      "stateMutability": "view",
      "type": "function"
    },
    {
      "inputs": [],
      "name": "iWmatic",
      "outputs": [
        {
          "internalType": "contract IERC20",
          "name": "",
          "type": "address"
        }
      ],
      "stateMutability": "view",
      "type": "function"
    },
    {
      "inputs": [],
      "name": "iaWmatic",
      "outputs": [
        {
          "internalType": "contract IERC20",
          "name": "",
          "type": "address"
        }
      ],
      "stateMutability": "view",
      "type": "function"
    },
    {
      "inputs": [
        {
          "internalType": "uint256",
          "name": "profileId",
          "type": "uint256"
        },
        {
          "internalType": "bytes",
          "name": "data",
          "type": "bytes"
        }
      ],
      "name": "initializeFollowModule",
      "outputs": [
        {
          "internalType": "bytes",
          "name": "",
          "type": "bytes"
        }
      ],
      "stateMutability": "nonpayable",
      "type": "function"
    },
    {
      "inputs": [
        {
          "internalType": "uint256",
          "name": "profileId",
          "type": "uint256"
        },
        {
          "internalType": "address",
          "name": "follower",
          "type": "address"
        },
        {
          "internalType": "uint256",
          "name": "followNFTTokenId",
          "type": "uint256"
        }
      ],
      "name": "isFollowing",
      "outputs": [
        {
          "internalType": "bool",
          "name": "",
          "type": "bool"
        }
      ],
      "stateMutability": "view",
      "type": "function"
    },
    {
      "inputs": [],
      "name": "lastRequestId",
      "outputs": [
        {
          "internalType": "uint256",
          "name": "",
          "type": "uint256"
        }
      ],
      "stateMutability": "view",
      "type": "function"
    },
    {
      "inputs": [
        {
          "internalType": "address",
          "name": "follower",
          "type": "address"
        },
        {
          "internalType": "uint256",
          "name": "profileId",
          "type": "uint256"
        },
        {
          "internalType": "bytes",
          "name": "data",
          "type": "bytes"
        }
      ],
      "name": "processFollow",
      "outputs": [],
      "stateMutability": "nonpayable",
      "type": "function"
    },
    {
      "inputs": [
        {
          "internalType": "uint256",
          "name": "requestId",
          "type": "uint256"
        },
        {
          "internalType": "uint256[]",
          "name": "randomWords",
          "type": "uint256[]"
        }
      ],
      "name": "rawFulfillRandomWords",
      "outputs": [],
      "stateMutability": "nonpayable",
      "type": "function"
    },
    {
      "inputs": [
        {
          "internalType": "uint256",
          "name": "",
          "type": "uint256"
        }
      ],
      "name": "requestIds",
      "outputs": [
        {
          "internalType": "uint256",
          "name": "",
          "type": "uint256"
        }
      ],
      "stateMutability": "view",
      "type": "function"
    },
    {
      "inputs": [
        {
          "internalType": "uint256",
          "name": "",
          "type": "uint256"
        }
      ],
      "name": "s_requests",
      "outputs": [
        {
          "internalType": "bool",
          "name": "fulfilled",
          "type": "bool"
        },
        {
          "internalType": "bool",
          "name": "exists",
          "type": "bool"
        }
      ],
      "stateMutability": "view",
      "type": "function"
    },
    {
      "inputs": [],
      "name": "withdraw",
      "outputs": [],
      "stateMutability": "nonpayable",
      "type": "function"
    },
    {
      "stateMutability": "payable",
      "type": "receive"
    }
  ],
  "transactionHash": "0xb47403edb682975f504f70edd6d18840661f55942abd7afe79ac84e0fc3cedb4",
  "args": [
    "0xd0D5e3DB44DE05E9F294BB0a3bEEaF030DE24Ada",
    "0x7a1BaC17Ccc5b313516C5E16fb24f7659aA5ebed",
    "2313",
    "0x4b09e658ed251bcafeebbc69400383d49f344ace09b9576fe248bb02c003fe9f",
    "2500000",
    "0x7582177F9E536aB0b6c721e11f383C326F2Ad1D5",
    "0xcbCC5b9611d22d11403373432642Df9Ef7Dd81AD",
    "0x5343b5bA672Ae99d627A1C87866b8E53F47Db2E6",
    "0xb685400156cF3CBE8725958DeAA61436727A30c3",
    "0x89a6AE840b3F8f489418933A220315eeA36d11fF"
  ],
  "numDeployments": 30,
  "solcInputHash": "aeae0227a3629d5e50c8063d101d1d08",
  "bytecode": "0x61026060405260636101809081525060036101e09081525067016345785d8a0000610200908152506000600a553480156200003957600080fd5b5060405162004a9538038062004a9583398181016040528101906200005f91906200072c565b84848a8073ffffffffffffffffffffffffffffffffffffffff1660808173ffffffffffffffffffffffffffffffffffffffff168152505050600073ffffffffffffffffffffffffffffffffffffffff168173ffffffffffffffffffffffffffffffffffffffff161415620000ff576040517f48be0eb300000000000000000000000000000000000000000000000000000000815260040160405180910390fd5b8073ffffffffffffffffffffffffffffffffffffffff1660a08173ffffffffffffffffffffffffffffffffffffffff16815250508073ffffffffffffffffffffffffffffffffffffffff167f4e84a529f4c627b5e787037d117873af1018768804cca3c7f0d47041fe2c89ed426040516200017b91906200083d565b60405180910390a250600073ffffffffffffffffffffffffffffffffffffffff168173ffffffffffffffffffffffffffffffffffffffff161415620001ec576040517f48be0eb300000000000000000000000000000000000000000000000000000000815260040160405180910390fd5b8073ffffffffffffffffffffffffffffffffffffffff1660c08173ffffffffffffffffffffffffffffffffffffffff16815250508073ffffffffffffffffffffffffffffffffffffffff167ff1a1fa6b64aa95186f5a1285e76198d0da80d9c5a88062641d447f1d7c54e56c426040516200026891906200083d565b60405180910390a25089600060016101000a81548173ffffffffffffffffffffffffffffffffffffffff021916908373ffffffffffffffffffffffffffffffffffffffff16021790555033600e60006101000a81548173ffffffffffffffffffffffffffffffffffffffff021916908373ffffffffffffffffffffffffffffffffffffffff16021790555088600160006101000a81548173ffffffffffffffffffffffffffffffffffffffff021916908373ffffffffffffffffffffffffffffffffffffffff16021790555060008060006101000a81548160ff021916908360018111156200035c576200035b6200085a565b5b02179055508767ffffffffffffffff166101208167ffffffffffffffff16815250508660e081815250508563ffffffff166101008163ffffffff16815250506000600b819055508273ffffffffffffffffffffffffffffffffffffffff166101408173ffffffffffffffffffffffffffffffffffffffff16815250506101405173ffffffffffffffffffffffffffffffffffffffff1663026b1d5f6040518163ffffffff1660e01b8152600401602060405180830381865afa15801562000427573d6000803e3d6000fd5b505050506040513d601f19601f820116820180604052508101906200044d919062000889565b73ffffffffffffffffffffffffffffffffffffffff166101608173ffffffffffffffffffffffffffffffffffffffff16815250508173ffffffffffffffffffffffffffffffffffffffff166101a08173ffffffffffffffffffffffffffffffffffffffff16815250508073ffffffffffffffffffffffffffffffffffffffff166101c08173ffffffffffffffffffffffffffffffffffffffff16815250506101c051600760006101000a81548173ffffffffffffffffffffffffffffffffffffffff021916908373ffffffffffffffffffffffffffffffffffffffff1602179055506101a051600860006101000a81548173ffffffffffffffffffffffffffffffffffffffff021916908373ffffffffffffffffffffffffffffffffffffffff16021790555060646101805161020051620005899190620008ea565b6200059591906200097a565b610240818152505060016101e051620005af9190620009b2565b61024051620005bf9190620008ea565b600f81905550610240516101e051620005d99190620008ea565b61022081815250506000600581905550600060068190555050505050505050505050620009ed565b600080fd5b600073ffffffffffffffffffffffffffffffffffffffff82169050919050565b6000620006338262000606565b9050919050565b620006458162000626565b81146200065157600080fd5b50565b60008151905062000665816200063a565b92915050565b600067ffffffffffffffff82169050919050565b6200068a816200066b565b81146200069657600080fd5b50565b600081519050620006aa816200067f565b92915050565b6000819050919050565b620006c581620006b0565b8114620006d157600080fd5b50565b600081519050620006e581620006ba565b92915050565b600063ffffffff82169050919050565b6200070681620006eb565b81146200071257600080fd5b50565b6000815190506200072681620006fb565b92915050565b6000806000806000806000806000806101408b8d03121562000753576200075262000601565b5b6000620007638d828e0162000654565b9a50506020620007768d828e0162000654565b9950506040620007898d828e0162000699565b98505060606200079c8d828e01620006d4565b9750506080620007af8d828e0162000715565b96505060a0620007c28d828e0162000654565b95505060c0620007d58d828e0162000654565b94505060e0620007e88d828e0162000654565b935050610100620007fc8d828e0162000654565b925050610120620008108d828e0162000654565b9150509295989b9194979a5092959850565b6000819050919050565b620008378162000822565b82525050565b60006020820190506200085460008301846200082c565b92915050565b7f4e487b7100000000000000000000000000000000000000000000000000000000600052602160045260246000fd5b600060208284031215620008a257620008a162000601565b5b6000620008b28482850162000654565b91505092915050565b7f4e487b7100000000000000000000000000000000000000000000000000000000600052601160045260246000fd5b6000620008f78262000822565b9150620009048362000822565b9250817fffffffffffffffffffffffffffffffffffffffffffffffffffffffffffffffff048311821515161562000940576200093f620008bb565b5b828202905092915050565b7f4e487b7100000000000000000000000000000000000000000000000000000000600052601260045260246000fd5b6000620009878262000822565b9150620009948362000822565b925082620009a757620009a66200094b565b5b828204905092915050565b6000620009bf8262000822565b9150620009cc8362000822565b925082821015620009e257620009e1620008bb565b5b828203905092915050565b60805160a05160c05160e05161010051610120516101405161016051610180516101a0516101c0516101e051610200516102205161024051613f9b62000afa6000396000505060005050600081816109cf01528181610b41015281816118e301528181611a8a0152611afe015260008181610f5901528181611b4a01528181611dae01526122fb0152600050506000610ee10152600050506000818161089701528181610e2201528181610ea5015281816112950152611b8201526000505060006120100152600061203301526000611fef0152600081816108bd0152818161143b015281816118440152611b240152600061181e01526000818161108d01526110e10152613f9b6000f3fe6080604052600436106101e65760003560e01c80639713958a11610102578063bf92857c11610095578063e48d369e11610064578063e48d369e14610768578063e4a6abd1146107a5578063ee98b5d2146107e2578063fc2a88c31461081f576101ed565b8063bf92857c14610692578063c2a3397d146106d4578063cb200f9b146106ff578063d8a4676f1461072a576101ed565b8063a47acca7116100d1578063a47acca7146105e6578063a4c52b8614610611578063b97a7d241461063c578063bd1ee94614610667576101ed565b80639713958a14610503578063997ef92d146105405780639e87a5cd1461057d578063a168fa89146105a8576101ed565b8063451c3d0c1161017a57806373b9fb851161014957806373b9fb851461043357806381496975146104705780638796ba8c1461049b57806388ffe851146104d8576101ed565b8063451c3d0c1461035157806345b7f60a1461038e57806347c6724c146103cb578063729ae62f14610408576101ed565b80631fe543e3116101b65780631fe543e3146102ab57806327e235e3146102d45780633cb22cc4146103115780633ccfd60b1461033a576101ed565b8062dc65f2146101ef578063026b1d5f1461022c5780630e096ae11461025757806312065fe014610280576101ed565b366101ed57005b005b3480156101fb57600080fd5b5061021660048036038101906102119190612b20565b61084a565b6040516102239190612b66565b60405180910390f35b34801561023857600080fd5b50610241610893565b60405161024e9190612b90565b60405180910390f35b34801561026357600080fd5b5061027e60048036038101906102799190612c3c565b6108bb565b005b34801561028c57600080fd5b50610295611083565b6040516102a29190612b66565b60405180910390f35b3480156102b757600080fd5b506102d260048036038101906102cd9190612dff565b61108b565b005b3480156102e057600080fd5b506102fb60048036038101906102f69190612b20565b61114b565b6040516103089190612b66565b60405180910390f35b34801561031d57600080fd5b5061033860048036038101906103339190612e5b565b611163565b005b34801561034657600080fd5b5061034f611169565b005b34801561035d57600080fd5b5061037860048036038101906103739190612ec2565b611436565b6040516103859190612f30565b60405180910390f35b34801561039a57600080fd5b506103b560048036038101906103b09190612f4b565b611653565b6040516103c29190612fd8565b60405180910390f35b3480156103d757600080fd5b506103f260048036038101906103ed9190612b20565b611736565b6040516103ff9190612b66565b60405180910390f35b34801561041457600080fd5b5061041d61177f565b60405161042a9190613052565b60405180910390f35b34801561043f57600080fd5b5061045a60048036038101906104559190612b20565b6117a5565b6040516104679190612b66565b60405180910390f35b34801561047c57600080fd5b506104856117ee565b6040516104929190612b66565b60405180910390f35b3480156104a757600080fd5b506104c260048036038101906104bd9190612f4b565b6117f8565b6040516104cf9190612b66565b60405180910390f35b3480156104e457600080fd5b506104ed61181c565b6040516104fa9190612b90565b60405180910390f35b34801561050f57600080fd5b5061052a6004803603810190610525919061306d565b611840565b6040516105379190613155565b60405180910390f35b34801561054c57600080fd5b5061056760048036038101906105629190612b20565b611a17565b6040516105749190612b66565b60405180910390f35b34801561058957600080fd5b50610592611a60565b60405161059f9190612b66565b60405180910390f35b3480156105b457600080fd5b506105cf60048036038101906105ca9190612f4b565b611abc565b6040516105dd929190613177565b60405180910390f35b3480156105f257600080fd5b506105fb611afa565b6040516106089190612b66565b60405180910390f35b34801561061d57600080fd5b50610626611b22565b6040516106339190612b90565b60405180910390f35b34801561064857600080fd5b50610651611b46565b60405161065e9190612b66565b60405180910390f35b34801561067357600080fd5b5061067c611b6e565b6040516106899190612b66565b60405180910390f35b34801561069e57600080fd5b506106b960048036038101906106b49190612b20565b611b77565b6040516106cb969594939291906131a0565b60405180910390f35b3480156106e057600080fd5b506106e9611c2f565b6040516106f69190612b90565b60405180910390f35b34801561070b57600080fd5b50610714611c59565b6040516107219190613052565b60405180910390f35b34801561073657600080fd5b50610751600480360381019061074c9190612f4b565b611c7f565b60405161075f9291906132b0565b60405180910390f35b34801561077457600080fd5b5061078f600480360381019061078a9190612b20565b611daa565b60405161079c9190612b66565b60405180910390f35b3480156107b157600080fd5b506107cc60048036038101906107c79190612b20565b611e1e565b6040516107d99190612b66565b60405180910390f35b3480156107ee57600080fd5b50610809600480360381019061080491906132e0565b611e67565b6040516108169190612b90565b60405180910390f35b34801561082b57600080fd5b50610834611ee2565b6040516108419190612b66565b60405180910390f35b6000601160008373ffffffffffffffffffffffffffffffffffffffff1673ffffffffffffffffffffffffffffffffffffffff168152602001908152602001600020549050919050565b60007f0000000000000000000000000000000000000000000000000000000000000000905090565b7f000000000000000000000000000000000000000000000000000000000000000073ffffffffffffffffffffffffffffffffffffffff163373ffffffffffffffffffffffffffffffffffffffff1614610940576040517f9de9741800000000000000000000000000000000000000000000000000000000815260040160405180910390fd5b6000808383810190610952919061335e565b915091506017600086815260200190815260200160002060020160009054906101000a900473ffffffffffffffffffffffffffffffffffffffff16600c60006101000a81548173ffffffffffffffffffffffffffffffffffffffff021916908373ffffffffffffffffffffffffffffffffffffffff1602179055507f0000000000000000000000000000000000000000000000000000000000000000821015610a27576040517fd8a8938f00000000000000000000000000000000000000000000000000000000815260040160405180910390fd5b600c60009054906101000a900473ffffffffffffffffffffffffffffffffffffffff1673ffffffffffffffffffffffffffffffffffffffff168673ffffffffffffffffffffffffffffffffffffffff161415610aaf576040517f6860e3cf00000000000000000000000000000000000000000000000000000000815260040160405180910390fd5b60116000600c60009054906101000a900473ffffffffffffffffffffffffffffffffffffffff1673ffffffffffffffffffffffffffffffffffffffff1673ffffffffffffffffffffffffffffffffffffffff16815260200190815260200160002054600a819055506000610b6e600060019054906101000a900473ffffffffffffffffffffffffffffffffffffffff167f0000000000000000000000000000000000000000000000000000000000000000611ee890919063ffffffff16565b90508060126000600c60009054906101000a900473ffffffffffffffffffffffffffffffffffffffff1673ffffffffffffffffffffffffffffffffffffffff1673ffffffffffffffffffffffffffffffffffffffff1681526020019081526020016000206000828254610be191906133cd565b925050819055508060166000600c60009054906101000a900473ffffffffffffffffffffffffffffffffffffffff1673ffffffffffffffffffffffffffffffffffffffff1673ffffffffffffffffffffffffffffffffffffffff1681526020019081526020016000206000828254610c5991906133cd565b925050819055508660106000600c60009054906101000a900473ffffffffffffffffffffffffffffffffffffffff1673ffffffffffffffffffffffffffffffffffffffff1673ffffffffffffffffffffffffffffffffffffffff1681526020019081526020016000206000600a54815260200190815260200160002060006101000a81548173ffffffffffffffffffffffffffffffffffffffff021916908373ffffffffffffffffffffffffffffffffffffffff160217905550600a6000815480929190610d2690613423565b9190505550600a5460116000600c60009054906101000a900473ffffffffffffffffffffffffffffffffffffffff1673ffffffffffffffffffffffffffffffffffffffff1673ffffffffffffffffffffffffffffffffffffffff16815260200190815260200160002081905550610de2873083600860009054906101000a900473ffffffffffffffffffffffffffffffffffffffff1673ffffffffffffffffffffffffffffffffffffffff16611f24909392919063ffffffff16565b600860009054906101000a900473ffffffffffffffffffffffffffffffffffffffff1673ffffffffffffffffffffffffffffffffffffffff1663095ea7b37f0000000000000000000000000000000000000000000000000000000000000000836040518363ffffffff1660e01b8152600401610e5f92919061346c565b6020604051808303816000875af1158015610e7e573d6000803e3d6000fd5b505050506040513d601f19601f82011682018060405250810190610ea291906134c1565b507f000000000000000000000000000000000000000000000000000000000000000073ffffffffffffffffffffffffffffffffffffffff1663617ba0377f0000000000000000000000000000000000000000000000000000000000000000833060006040518563ffffffff1660e01b8152600401610f239493929190613537565b600060405180830381600087803b158015610f3d57600080fd5b505af1158015610f51573d6000803e3d6000fd5b5050505060007f0000000000000000000000000000000000000000000000000000000000000000600a54610f8591906135ab565b148015610ff45750600060116000600c60009054906101000a900473ffffffffffffffffffffffffffffffffffffffff1673ffffffffffffffffffffffffffffffffffffffff1673ffffffffffffffffffffffffffffffffffffffff1681526020019081526020016000205414155b1561107a5760156000600c60009054906101000a900473ffffffffffffffffffffffffffffffffffffffff1673ffffffffffffffffffffffffffffffffffffffff1673ffffffffffffffffffffffffffffffffffffffff168152602001908152602001600020600081548092919061106b90613423565b9190505550611078611fad565b505b50505050505050565b600047905090565b7f000000000000000000000000000000000000000000000000000000000000000073ffffffffffffffffffffffffffffffffffffffff163373ffffffffffffffffffffffffffffffffffffffff161461113d57337f00000000000000000000000000000000000000000000000000000000000000006040517f1cf993f40000000000000000000000000000000000000000000000000000000081526004016111349291906135dc565b60405180910390fd5b6111478282612203565b5050565b60096020528060005260406000206000915090505481565b50505050565b600e60009054906101000a900473ffffffffffffffffffffffffffffffffffffffff1673ffffffffffffffffffffffffffffffffffffffff163373ffffffffffffffffffffffffffffffffffffffff16146111f9576040517f08c379a00000000000000000000000000000000000000000000000000000000081526004016111f090613662565b60405180910390fd5b6000600e60009054906101000a900473ffffffffffffffffffffffffffffffffffffffff1673ffffffffffffffffffffffffffffffffffffffff1647604051611241906136b3565b60006040518083038185875af1925050503d806000811461127e576040519150601f19603f3d011682016040523d82523d6000602084013e611283565b606091505b505090508061129157600080fd5b60007f000000000000000000000000000000000000000000000000000000000000000073ffffffffffffffffffffffffffffffffffffffff1663bf92857c306040518263ffffffff1660e01b81526004016112ec9190612b90565b60c060405180830381865afa158015611309573d6000803e3d6000fd5b505050506040513d601f19601f8201168201806040525081019061132d91906136dd565b505050505090506000600760009054906101000a900473ffffffffffffffffffffffffffffffffffffffff1673ffffffffffffffffffffffffffffffffffffffff1663a9059cbb600e60009054906101000a900473ffffffffffffffffffffffffffffffffffffffff16846040518363ffffffff1660e01b81526004016113b592919061378b565b6020604051808303816000875af11580156113d4573d6000803e3d6000fd5b505050506040513d601f19601f820116820180604052508101906113f891906134c1565b905080611431576040517fad2b2a6b00000000000000000000000000000000000000000000000000000000815260040160405180910390fd5b505050565b6000807f000000000000000000000000000000000000000000000000000000000000000073ffffffffffffffffffffffffffffffffffffffff1663a9ec6563866040518263ffffffff1660e01b81526004016114929190612b66565b602060405180830381865afa1580156114af573d6000803e3d6000fd5b505050506040513d601f19601f820116820180604052508101906114d391906137c9565b9050600073ffffffffffffffffffffffffffffffffffffffff168173ffffffffffffffffffffffffffffffffffffffff16141561151457600091505061164c565b600083146115c9578373ffffffffffffffffffffffffffffffffffffffff168173ffffffffffffffffffffffffffffffffffffffff16636352211e856040518263ffffffff1660e01b815260040161156c9190612b66565b602060405180830381865afa158015611589573d6000803e3d6000fd5b505050506040513d601f19601f820116820180604052508101906115ad91906137c9565b73ffffffffffffffffffffffffffffffffffffffff1614611648565b60008173ffffffffffffffffffffffffffffffffffffffff166370a08231866040518263ffffffff1660e01b81526004016116049190612b90565b602060405180830381865afa158015611621573d6000803e3d6000fd5b505050506040513d601f19601f8201168201806040525081019061164591906137f6565b14155b9150505b9392505050565b61165b6129f7565b601760008381526020019081526020016000206040518060600160405290816000820160009054906101000a900473ffffffffffffffffffffffffffffffffffffffff1673ffffffffffffffffffffffffffffffffffffffff1673ffffffffffffffffffffffffffffffffffffffff168152602001600182015481526020016002820160009054906101000a900473ffffffffffffffffffffffffffffffffffffffff1673ffffffffffffffffffffffffffffffffffffffff1673ffffffffffffffffffffffffffffffffffffffff16815250509050919050565b6000601460008373ffffffffffffffffffffffffffffffffffffffff1673ffffffffffffffffffffffffffffffffffffffff168152602001908152602001600020549050919050565b600860009054906101000a900473ffffffffffffffffffffffffffffffffffffffff1681565b6000601560008373ffffffffffffffffffffffffffffffffffffffff1673ffffffffffffffffffffffffffffffffffffffff168152602001908152602001600020549050919050565b6000600b54905090565b6003818154811061180857600080fd5b906000526020600020016000915090505481565b7f000000000000000000000000000000000000000000000000000000000000000081565b60607f000000000000000000000000000000000000000000000000000000000000000073ffffffffffffffffffffffffffffffffffffffff163373ffffffffffffffffffffffffffffffffffffffff16146118c7576040517f9de9741800000000000000000000000000000000000000000000000000000000815260040160405180910390fd5b600080600085858101906118db9190613823565b9250925092507f00000000000000000000000000000000000000000000000000000000000000006017600089815260200190815260200160002060010181905550816017600089815260200190815260200160002060000160006101000a81548173ffffffffffffffffffffffffffffffffffffffff021916908373ffffffffffffffffffffffffffffffffffffffff160217905550806017600089815260200190815260200160002060020160006101000a81548173ffffffffffffffffffffffffffffffffffffffff021916908373ffffffffffffffffffffffffffffffffffffffff16021790555085858080601f016020809104026020016040519081016040528093929190818152602001838380828437600081840152601f19601f8201169050808301925050505050505093505050509392505050565b6000601260008373ffffffffffffffffffffffffffffffffffffffff1673ffffffffffffffffffffffffffffffffffffffff168152602001908152602001600020549050919050565b6000611ab7600060019054906101000a900473ffffffffffffffffffffffffffffffffffffffff167f0000000000000000000000000000000000000000000000000000000000000000611ee890919063ffffffff16565b905090565b60026020528060005260406000206000915090508060000160009054906101000a900460ff16908060000160019054906101000a900460ff16905082565b60007f0000000000000000000000000000000000000000000000000000000000000000905090565b7f000000000000000000000000000000000000000000000000000000000000000081565b60007f0000000000000000000000000000000000000000000000000000000000000000905090565b60006001905090565b6000806000806000807f000000000000000000000000000000000000000000000000000000000000000073ffffffffffffffffffffffffffffffffffffffff1663bf92857c886040518263ffffffff1660e01b8152600401611bd99190612b90565b60c060405180830381865afa158015611bf6573d6000803e3d6000fd5b505050506040513d601f19601f82011682018060405250810190611c1a91906136dd565b95509550955095509550955091939550919395565b6000600d60009054906101000a900473ffffffffffffffffffffffffffffffffffffffff16905090565b600760009054906101000a900473ffffffffffffffffffffffffffffffffffffffff1681565b600060606002600084815260200190815260200160002060000160019054906101000a900460ff16611ce6576040517f08c379a0000000000000000000000000000000000000000000000000000000008152600401611cdd906138c2565b60405180910390fd5b6000600260008581526020019081526020016000206040518060600160405290816000820160009054906101000a900460ff161515151581526020016000820160019054906101000a900460ff1615151515815260200160018201805480602002602001604051908101604052809291908181526020018280548015611d8b57602002820191906000526020600020905b815481526020019060010190808311611d77575b5050505050815250509050806000015181604001519250925050915091565b60007f0000000000000000000000000000000000000000000000000000000000000000601160008473ffffffffffffffffffffffffffffffffffffffff1673ffffffffffffffffffffffffffffffffffffffff16815260200190815260200160002054611e1791906135ab565b9050919050565b6000601660008373ffffffffffffffffffffffffffffffffffffffff1673ffffffffffffffffffffffffffffffffffffffff168152602001908152602001600020549050919050565b6000601060008473ffffffffffffffffffffffffffffffffffffffff1673ffffffffffffffffffffffffffffffffffffffff168152602001908152602001600020600083815260200190815260200160002060009054906101000a900473ffffffffffffffffffffffffffffffffffffffff16905092915050565b60045481565b600080611ef483612542565b90506000670de0b6b3a76400008583611f0d91906138e2565b611f17919061393c565b9050809250505092915050565b611fa7846323b872dd60e01b858585604051602401611f459392919061396d565b604051602081830303815290604052907bffffffffffffffffffffffffffffffffffffffffffffffffffffffff19166020820180517bffffffffffffffffffffffffffffffffffffffffffffffffffffffff83818316178352505050506125d3565b50505050565b6000600160009054906101000a900473ffffffffffffffffffffffffffffffffffffffff1673ffffffffffffffffffffffffffffffffffffffff16635d3b1d307f00000000000000000000000000000000000000000000000000000000000000007f000000000000000000000000000000000000000000000000000000000000000060037f000000000000000000000000000000000000000000000000000000000000000060016040518663ffffffff1660e01b8152600401612074959493929190613a0e565b6020604051808303816000875af1158015612093573d6000803e3d6000fd5b505050506040513d601f19601f820116820180604052508101906120b791906137f6565b90506040518060600160405280600015158152602001600115158152602001600067ffffffffffffffff8111156120f1576120f0612cc1565b5b60405190808252806020026020018201604052801561211f5781602001602082028036833780820191505090505b508152506002600083815260200190815260200160002060008201518160000160006101000a81548160ff02191690831515021790555060208201518160000160016101000a81548160ff0219169083151502179055506040820151816001019080519060200190612192929190612a44565b509050506003819080600181540180825580915050600190039060005260206000200160009091909190915055806004819055507fcc58b13ad3eab50626c6a6300b1d139cd6ebb1688a7cced9461c2f7e762665ee8160016040516121f8929190613a61565b60405180910390a190565b6002600083815260200190815260200160002060000160019054906101000a900460ff16612266576040517f08c379a000000000000000000000000000000000000000000000000000000000815260040161225d906138c2565b60405180910390fd5b60016002600084815260200190815260200160002060000160006101000a81548160ff021916908315150217905550806002600084815260200190815260200160002060010190805190602001906122bf929190612a44565b507ffe2e2d779dba245964d4e3ef9b994be63856fd568bf7d3ca9e224755cb1bd54d82826040516122f1929190613a8a565b60405180910390a17f00000000000000000000000000000000000000000000000000000000000000008160008151811061232e5761232d613aba565b5b602002602001015161234091906135ab565b600b819055506001600b5460116000600c60009054906101000a900473ffffffffffffffffffffffffffffffffffffffff1673ffffffffffffffffffffffffffffffffffffffff1673ffffffffffffffffffffffffffffffffffffffff168152602001908152602001600020546123b79190613ae9565b6123c19190613ae9565b600b8190555060106000600c60009054906101000a900473ffffffffffffffffffffffffffffffffffffffff1673ffffffffffffffffffffffffffffffffffffffff1673ffffffffffffffffffffffffffffffffffffffff1681526020019081526020016000206000600b54815260200190815260200160002060009054906101000a900473ffffffffffffffffffffffffffffffffffffffff16600d60006101000a81548173ffffffffffffffffffffffffffffffffffffffff021916908373ffffffffffffffffffffffffffffffffffffffff16021790555060146000600d60009054906101000a900473ffffffffffffffffffffffffffffffffffffffff1673ffffffffffffffffffffffffffffffffffffffff1673ffffffffffffffffffffffffffffffffffffffff168152602001908152602001600020600081548092919061250e90613423565b919050555061253e600d60009054906101000a900473ffffffffffffffffffffffffffffffffffffffff1661269a565b5050565b6000808273ffffffffffffffffffffffffffffffffffffffff1663feaf968c6040518163ffffffff1660e01b815260040160a060405180830381865afa158015612590573d6000803e3d6000fd5b505050506040513d601f19601f820116820180604052508101906125b49190613b95565b5050509150506402540be400816125cb9190613c10565b915050919050565b6000612635826040518060400160405280602081526020017f5361666545524332303a206c6f772d6c6576656c2063616c6c206661696c65648152508573ffffffffffffffffffffffffffffffffffffffff166128419092919063ffffffff16565b9050600081511115612695578080602001905181019061265591906134c1565b612694576040517f08c379a000000000000000000000000000000000000000000000000000000000815260040161268b90613d99565b60405180910390fd5b5b505050565b6000600760009054906101000a900473ffffffffffffffffffffffffffffffffffffffff1673ffffffffffffffffffffffffffffffffffffffff1663a9059cbb8360166000600c60009054906101000a900473ffffffffffffffffffffffffffffffffffffffff1673ffffffffffffffffffffffffffffffffffffffff1673ffffffffffffffffffffffffffffffffffffffff168152602001908152602001600020546040518363ffffffff1660e01b815260040161275a92919061346c565b6020604051808303816000875af1158015612779573d6000803e3d6000fd5b505050506040513d601f19601f8201168201806040525081019061279d91906134c1565b9050806127d6576040517fad2b2a6b00000000000000000000000000000000000000000000000000000000815260040160405180910390fd5b600060166000600c60009054906101000a900473ffffffffffffffffffffffffffffffffffffffff1673ffffffffffffffffffffffffffffffffffffffff1673ffffffffffffffffffffffffffffffffffffffff168152602001908152602001600020819055505050565b60606128508484600085612859565b90509392505050565b60608247101561289e576040517f08c379a000000000000000000000000000000000000000000000000000000000815260040161289590613e2b565b60405180910390fd5b6128a78561296d565b6128e6576040517f08c379a00000000000000000000000000000000000000000000000000000000081526004016128dd90613e97565b60405180910390fd5b6000808673ffffffffffffffffffffffffffffffffffffffff16858760405161290f9190613ee8565b60006040518083038185875af1925050503d806000811461294c576040519150601f19603f3d011682016040523d82523d6000602084013e612951565b606091505b5091509150612961828286612990565b92505050949350505050565b6000808273ffffffffffffffffffffffffffffffffffffffff163b119050919050565b606083156129a0578290506129f0565b6000835111156129b35782518084602001fd5b816040517f08c379a00000000000000000000000000000000000000000000000000000000081526004016129e79190613f43565b60405180910390fd5b9392505050565b6040518060600160405280600073ffffffffffffffffffffffffffffffffffffffff16815260200160008152602001600073ffffffffffffffffffffffffffffffffffffffff1681525090565b828054828255906000526020600020908101928215612a80579160200282015b82811115612a7f578251825591602001919060010190612a64565b5b509050612a8d9190612a91565b5090565b5b80821115612aaa576000816000905550600101612a92565b5090565b6000604051905090565b600080fd5b600080fd5b600073ffffffffffffffffffffffffffffffffffffffff82169050919050565b6000612aed82612ac2565b9050919050565b612afd81612ae2565b8114612b0857600080fd5b50565b600081359050612b1a81612af4565b92915050565b600060208284031215612b3657612b35612ab8565b5b6000612b4484828501612b0b565b91505092915050565b6000819050919050565b612b6081612b4d565b82525050565b6000602082019050612b7b6000830184612b57565b92915050565b612b8a81612ae2565b82525050565b6000602082019050612ba56000830184612b81565b92915050565b612bb481612b4d565b8114612bbf57600080fd5b50565b600081359050612bd181612bab565b92915050565b600080fd5b600080fd5b600080fd5b60008083601f840112612bfc57612bfb612bd7565b5b8235905067ffffffffffffffff811115612c1957612c18612bdc565b5b602083019150836001820283011115612c3557612c34612be1565b5b9250929050565b60008060008060608587031215612c5657612c55612ab8565b5b6000612c6487828801612b0b565b9450506020612c7587828801612bc2565b935050604085013567ffffffffffffffff811115612c9657612c95612abd565b5b612ca287828801612be6565b925092505092959194509250565b6000601f19601f8301169050919050565b7f4e487b7100000000000000000000000000000000000000000000000000000000600052604160045260246000fd5b612cf982612cb0565b810181811067ffffffffffffffff82111715612d1857612d17612cc1565b5b80604052505050565b6000612d2b612aae565b9050612d378282612cf0565b919050565b600067ffffffffffffffff821115612d5757612d56612cc1565b5b602082029050602081019050919050565b6000612d7b612d7684612d3c565b612d21565b90508083825260208201905060208402830185811115612d9e57612d9d612be1565b5b835b81811015612dc75780612db38882612bc2565b845260208401935050602081019050612da0565b5050509392505050565b600082601f830112612de657612de5612bd7565b5b8135612df6848260208601612d68565b91505092915050565b60008060408385031215612e1657612e15612ab8565b5b6000612e2485828601612bc2565b925050602083013567ffffffffffffffff811115612e4557612e44612abd565b5b612e5185828601612dd1565b9150509250929050565b60008060008060808587031215612e7557612e74612ab8565b5b6000612e8387828801612bc2565b9450506020612e9487828801612b0b565b9350506040612ea587828801612b0b565b9250506060612eb687828801612bc2565b91505092959194509250565b600080600060608486031215612edb57612eda612ab8565b5b6000612ee986828701612bc2565b9350506020612efa86828701612b0b565b9250506040612f0b86828701612bc2565b9150509250925092565b60008115159050919050565b612f2a81612f15565b82525050565b6000602082019050612f456000830184612f21565b92915050565b600060208284031215612f6157612f60612ab8565b5b6000612f6f84828501612bc2565b91505092915050565b612f8181612ae2565b82525050565b612f9081612b4d565b82525050565b606082016000820151612fac6000850182612f78565b506020820151612fbf6020850182612f87565b506040820151612fd26040850182612f78565b50505050565b6000606082019050612fed6000830184612f96565b92915050565b6000819050919050565b600061301861301361300e84612ac2565b612ff3565b612ac2565b9050919050565b600061302a82612ffd565b9050919050565b600061303c8261301f565b9050919050565b61304c81613031565b82525050565b60006020820190506130676000830184613043565b92915050565b60008060006040848603121561308657613085612ab8565b5b600061309486828701612bc2565b935050602084013567ffffffffffffffff8111156130b5576130b4612abd565b5b6130c186828701612be6565b92509250509250925092565b600081519050919050565b600082825260208201905092915050565b60005b838110156131075780820151818401526020810190506130ec565b83811115613116576000848401525b50505050565b6000613127826130cd565b61313181856130d8565b93506131418185602086016130e9565b61314a81612cb0565b840191505092915050565b6000602082019050818103600083015261316f818461311c565b905092915050565b600060408201905061318c6000830185612f21565b6131996020830184612f21565b9392505050565b600060c0820190506131b56000830189612b57565b6131c26020830188612b57565b6131cf6040830187612b57565b6131dc6060830186612b57565b6131e96080830185612b57565b6131f660a0830184612b57565b979650505050505050565b600081519050919050565b600082825260208201905092915050565b6000819050602082019050919050565b60006132398383612f87565b60208301905092915050565b6000602082019050919050565b600061325d82613201565b613267818561320c565b93506132728361321d565b8060005b838110156132a357815161328a888261322d565b975061329583613245565b925050600181019050613276565b5085935050505092915050565b60006040820190506132c56000830185612f21565b81810360208301526132d78184613252565b90509392505050565b600080604083850312156132f7576132f6612ab8565b5b600061330585828601612b0b565b925050602061331685828601612bc2565b9150509250929050565b600061332b82612ac2565b9050919050565b61333b81613320565b811461334657600080fd5b50565b60008135905061335881613332565b92915050565b6000806040838503121561337557613374612ab8565b5b600061338385828601612bc2565b925050602061339485828601613349565b9150509250929050565b7f4e487b7100000000000000000000000000000000000000000000000000000000600052601160045260246000fd5b60006133d882612b4d565b91506133e383612b4d565b9250827fffffffffffffffffffffffffffffffffffffffffffffffffffffffffffffffff038211156134185761341761339e565b5b828201905092915050565b600061342e82612b4d565b91507fffffffffffffffffffffffffffffffffffffffffffffffffffffffffffffffff8214156134615761346061339e565b5b600182019050919050565b60006040820190506134816000830185612b81565b61348e6020830184612b57565b9392505050565b61349e81612f15565b81146134a957600080fd5b50565b6000815190506134bb81613495565b92915050565b6000602082840312156134d7576134d6612ab8565b5b60006134e5848285016134ac565b91505092915050565b6000819050919050565b600061ffff82169050919050565b600061352161351c613517846134ee565b612ff3565b6134f8565b9050919050565b61353181613506565b82525050565b600060808201905061354c6000830187612b81565b6135596020830186612b57565b6135666040830185612b81565b6135736060830184613528565b95945050505050565b7f4e487b7100000000000000000000000000000000000000000000000000000000600052601260045260246000fd5b60006135b682612b4d565b91506135c183612b4d565b9250826135d1576135d061357c565b5b828206905092915050565b60006040820190506135f16000830185612b81565b6135fe6020830184612b81565b9392505050565b600082825260208201905092915050565b7f4d757374206265206f776e657200000000000000000000000000000000000000600082015250565b600061364c600d83613605565b915061365782613616565b602082019050919050565b6000602082019050818103600083015261367b8161363f565b9050919050565b600081905092915050565b50565b600061369d600083613682565b91506136a88261368d565b600082019050919050565b60006136be82613690565b9150819050919050565b6000815190506136d781612bab565b92915050565b60008060008060008060c087890312156136fa576136f9612ab8565b5b600061370889828a016136c8565b965050602061371989828a016136c8565b955050604061372a89828a016136c8565b945050606061373b89828a016136c8565b935050608061374c89828a016136c8565b92505060a061375d89828a016136c8565b9150509295509295509295565b60006137758261301f565b9050919050565b6137858161376a565b82525050565b60006040820190506137a0600083018561377c565b6137ad6020830184612b57565b9392505050565b6000815190506137c381612af4565b92915050565b6000602082840312156137df576137de612ab8565b5b60006137ed848285016137b4565b91505092915050565b60006020828403121561380c5761380b612ab8565b5b600061381a848285016136c8565b91505092915050565b60008060006060848603121561383c5761383b612ab8565b5b600061384a86828701612bc2565b935050602061385b86828701613349565b925050604061386c86828701613349565b9150509250925092565b7f72657175657374206e6f7420666f756e64000000000000000000000000000000600082015250565b60006138ac601183613605565b91506138b782613876565b602082019050919050565b600060208201905081810360008301526138db8161389f565b9050919050565b60006138ed82612b4d565b91506138f883612b4d565b9250817fffffffffffffffffffffffffffffffffffffffffffffffffffffffffffffffff04831182151516156139315761393061339e565b5b828202905092915050565b600061394782612b4d565b915061395283612b4d565b9250826139625761396161357c565b5b828204905092915050565b60006060820190506139826000830186612b81565b61398f6020830185612b81565b61399c6040830184612b57565b949350505050565b6000819050919050565b6139b7816139a4565b82525050565b600067ffffffffffffffff82169050919050565b6139da816139bd565b82525050565b6139e9816134f8565b82525050565b600063ffffffff82169050919050565b613a08816139ef565b82525050565b600060a082019050613a2360008301886139ae565b613a3060208301876139d1565b613a3d60408301866139e0565b613a4a60608301856139ff565b613a5760808301846139ff565b9695505050505050565b6000604082019050613a766000830185612b57565b613a8360208301846139ff565b9392505050565b6000604082019050613a9f6000830185612b57565b8181036020830152613ab18184613252565b90509392505050565b7f4e487b7100000000000000000000000000000000000000000000000000000000600052603260045260246000fd5b6000613af482612b4d565b9150613aff83612b4d565b925082821015613b1257613b1161339e565b5b828203905092915050565b600069ffffffffffffffffffff82169050919050565b613b3c81613b1d565b8114613b4757600080fd5b50565b600081519050613b5981613b33565b92915050565b6000819050919050565b613b7281613b5f565b8114613b7d57600080fd5b50565b600081519050613b8f81613b69565b92915050565b600080600080600060a08688031215613bb157613bb0612ab8565b5b6000613bbf88828901613b4a565b9550506020613bd088828901613b80565b9450506040613be1888289016136c8565b9350506060613bf2888289016136c8565b9250506080613c0388828901613b4a565b9150509295509295909350565b6000613c1b82613b5f565b9150613c2683613b5f565b9250827f7fffffffffffffffffffffffffffffffffffffffffffffffffffffffffffffff0482116000841360008413161615613c6557613c6461339e565b5b817f80000000000000000000000000000000000000000000000000000000000000000583126000841260008413161615613ca257613ca161339e565b5b827f80000000000000000000000000000000000000000000000000000000000000000582126000841360008412161615613cdf57613cde61339e565b5b827f7fffffffffffffffffffffffffffffffffffffffffffffffffffffffffffffff0582126000841260008412161615613d1c57613d1b61339e565b5b828202905092915050565b7f5361666545524332303a204552433230206f7065726174696f6e20646964206e60008201527f6f74207375636365656400000000000000000000000000000000000000000000602082015250565b6000613d83602a83613605565b9150613d8e82613d27565b604082019050919050565b60006020820190508181036000830152613db281613d76565b9050919050565b7f416464726573733a20696e73756666696369656e742062616c616e636520666f60008201527f722063616c6c0000000000000000000000000000000000000000000000000000602082015250565b6000613e15602683613605565b9150613e2082613db9565b604082019050919050565b60006020820190508181036000830152613e4481613e08565b9050919050565b7f416464726573733a2063616c6c20746f206e6f6e2d636f6e7472616374000000600082015250565b6000613e81601d83613605565b9150613e8c82613e4b565b602082019050919050565b60006020820190508181036000830152613eb081613e74565b9050919050565b6000613ec2826130cd565b613ecc8185613682565b9350613edc8185602086016130e9565b80840191505092915050565b6000613ef48284613eb7565b915081905092915050565b600081519050919050565b6000613f1582613eff565b613f1f8185613605565b9350613f2f8185602086016130e9565b613f3881612cb0565b840191505092915050565b60006020820190508181036000830152613f5d8184613f0a565b90509291505056fea2646970667358221220af5b536d4a7c5f44c7c5be893e2c2920834c617ef66c1d7451eb36a6eff8277c64736f6c634300080a0033",
  "devdoc": {
    "author": "Daniel Beltrn",
    "details": "This implements price feeds as our library",
    "kind": "dev",
    "methods": {
      "followModuleTransferHook(uint256,address,address,uint256)": {
        "details": "We don't need to execute any additional logic on transfers in this follow module."
      },
      "getBalance()": {
        "returns": {
          "_0": "balance"
        }
      },
      "getFlowmiCost()": {
        "returns": {
          "_0": "i_flowmiCost cost in dollars"
        }
      },
      "getFlowmiState()": {
        "returns": {
          "_0": "1"
        }
      },
      "getFollowerOfIndex(address,uint256)": {
        "params": {
          "_index": "is the index given to the follower when started flowmi following",
          "_profileid": "is the profile requested"
        },
        "returns": {
          "_0": "s_profileToFollowersCount in the profileid location"
        }
      },
      "getFollowsToRaffle(address)": {
        "params": {
          "_profileid": "is the profile requested"
        },
        "returns": {
          "_0": "s_profileToFollowersCount[_profileid] % i_goal, total amount of followers related to the profile \"modulo\" the goal of the raffle, so it only counts whats haven't been raffled yet"
        }
      },
      "getFundsInThisRaffle(address)": {
        "params": {
          "_profileid": "is the profile requested"
        },
        "returns": {
          "_0": "s_profileToThisRaffleFunds[_profileid], amount gathered for this raffle"
        }
      },
      "getGoal()": {
        "returns": {
          "_0": "i_goal uint containing the goal"
        }
      },
      "getLastWinnerAddress()": {
        "returns": {
          "_0": "s_recentWinner address of the last winner"
        }
      },
      "getLastWinnerIndex()": {
        "returns": {
          "_0": "s_indexOfWinner index of the last winner"
        }
      },
      "getNumberOfFollowers(address)": {
        "params": {
          "_profileid": "is the profile"
        },
        "returns": {
          "_0": "s_profileToFollowersCount of the profile"
        }
      },
      "getPriceFeed()": {
        "returns": {
          "_0": "i_flowmiCost.getConversionRate(i_priceFeed)"
        }
      },
      "getProfileData(uint256)": {
        "params": {
          "profileId": "The token ID of the profile to query."
        },
        "returns": {
          "_0": "ProfileData The ProfileData struct mapped to that profile."
        }
      },
      "getProfileToRaffles(address)": {
        "params": {
          "_profileid": "is the profile requested"
        },
        "returns": {
          "_0": "s_profileToRaffles[_profileid], total amount of raffles delivered"
        }
      },
      "getProfileToWins(address)": {
        "params": {
          "_profileid": "is the profile requested"
        },
        "returns": {
          "_0": "s_profileToWins[_profileid], total amount of raffles won"
        }
      },
      "getTotalFundedProfile(address)": {
        "params": {
          "_profileid": "is the profile requested"
        },
        "returns": {
          "_0": "s_profileToFunds[_profileid], total amount of funds related to the profile"
        }
      },
      "initializeFollowModule(uint256,bytes)": {
        "params": {
          "data": "The arbitrary data parameter, decoded into:      address currency: The currency address, must be internally whitelisted.      uint256 amount: The currency total amount to levy.      address recipient: The custom recipient address to direct earnings to.",
          "profileId": "The profile ID of the profile to initialize this module for."
        },
        "returns": {
          "_0": "bytes An abi encoded bytes parameter, which is the same as the passed data parameter."
        }
      },
      "processFollow(address,uint256,bytes)": {
        "details": "Processes a follow by:  1. Charging a fee"
      }
    },
    "title": "Flowmi contract",
    "version": 1
  },
  "userdoc": {
    "kind": "user",
    "methods": {
      "getBalance()": {
        "notice": "Gets the balance in the flowmi account"
      },
      "getFlowmiCost()": {
        "notice": "Get the flowmi follow cost"
      },
      "getFlowmiState()": {
        "notice": "Get a 1 if the contract is deployed"
      },
      "getFollowerOfIndex(address,uint256)": {
        "notice": "Gets the address of a follower by index of flowmi follow"
      },
      "getFollowsToRaffle(address)": {
        "notice": "Gets number of followers in the current raffle"
      },
      "getFundsInThisRaffle(address)": {
        "notice": "Gets funds in the current raffle"
      },
      "getGoal()": {
        "notice": "Retrieve the goal of followers when the raffle is activated"
      },
      "getLastWinnerAddress()": {
        "notice": "Gets the latest winner address"
      },
      "getLastWinnerIndex()": {
        "notice": "Gets the latest winner index"
      },
      "getNumberOfFollowers(address)": {
        "notice": "Gets the number of followers a profile has"
      },
      "getPool()": {
        "notice": "Let's you know how much is in aave protocol"
      },
      "getPriceFeed()": {
        "notice": "Gets the conversion in matic for 1 usd"
      },
      "getProfileData(uint256)": {
        "notice": "Returns the profile data for a given profile, or an empty struct if that profile was not initialized with this module."
      },
      "getProfileToRaffles(address)": {
        "notice": "Gets total raffles a profile has made"
      },
      "getProfileToWins(address)": {
        "notice": "Gets total wins a profile has"
      },
      "getTotalFundedProfile(address)": {
        "notice": "Gets total funds a profile has been given"
      },
      "getUserAccountData(address)": {
        "notice": "AAVE pool data"
      },
      "initializeFollowModule(uint256,bytes)": {
        "notice": "This follow module levies a fee on follows."
      },
      "isFollowing(uint256,address,uint256)": {
        "notice": "Standard function to validate follow NFT ownership. This module is agnostic to follow NFT token IDs and other properties."
      },
      "withdraw()": {
        "notice": "To witdraw the total amount of funds flowmi account has to the deployer"
      }
    },
    "notice": "This contract is for raffling funds on flowmi, a pay-to-follow dapp",
    "version": 1
  },
  "storageLayout": {
    "storage": [
      {
        "astId": 2868,
        "contract": "contracts/core/modules/follow/FlowmiFollowModule.sol:FlowmiFollowModule",
        "label": "s_raffleState",
        "offset": 0,
        "slot": "0",
        "type": "t_enum(RaffleState)2865"
      },
      {
        "astId": 2884,
        "contract": "contracts/core/modules/follow/FlowmiFollowModule.sol:FlowmiFollowModule",
        "label": "i_priceFeed",
        "offset": 1,
        "slot": "0",
        "type": "t_contract(AggregatorV3Interface)1803"
      },
      {
        "astId": 2887,
        "contract": "contracts/core/modules/follow/FlowmiFollowModule.sol:FlowmiFollowModule",
        "label": "i_vrfCoordinator",
        "offset": 0,
        "slot": "1",
        "type": "t_contract(VRFCoordinatorV2Interface)1892"
      },
      {
        "astId": 2912,
        "contract": "contracts/core/modules/follow/FlowmiFollowModule.sol:FlowmiFollowModule",
        "label": "s_requests",
        "offset": 0,
        "slot": "2",
        "type": "t_mapping(t_uint256,t_struct(RequestStatus)2907_storage)"
      },
      {
        "astId": 2915,
        "contract": "contracts/core/modules/follow/FlowmiFollowModule.sol:FlowmiFollowModule",
        "label": "requestIds",
        "offset": 0,
        "slot": "3",
        "type": "t_array(t_uint256)dyn_storage"
      },
      {
        "astId": 2917,
        "contract": "contracts/core/modules/follow/FlowmiFollowModule.sol:FlowmiFollowModule",
        "label": "lastRequestId",
        "offset": 0,
        "slot": "4",
        "type": "t_uint256"
      },
      {
        "astId": 2931,
        "contract": "contracts/core/modules/follow/FlowmiFollowModule.sol:FlowmiFollowModule",
        "label": "indeposit",
        "offset": 0,
        "slot": "5",
        "type": "t_uint256"
      },
      {
        "astId": 2933,
        "contract": "contracts/core/modules/follow/FlowmiFollowModule.sol:FlowmiFollowModule",
        "label": "inwithdraw",
        "offset": 0,
        "slot": "6",
        "type": "t_uint256"
      },
      {
        "astId": 2940,
        "contract": "contracts/core/modules/follow/FlowmiFollowModule.sol:FlowmiFollowModule",
        "label": "iaWmatic",
        "offset": 0,
        "slot": "7",
        "type": "t_contract(IERC20)1970"
      },
      {
        "astId": 2943,
        "contract": "contracts/core/modules/follow/FlowmiFollowModule.sol:FlowmiFollowModule",
        "label": "iWmatic",
        "offset": 0,
        "slot": "8",
        "type": "t_contract(IERC20)1970"
      },
      {
        "astId": 2959,
        "contract": "contracts/core/modules/follow/FlowmiFollowModule.sol:FlowmiFollowModule",
        "label": "balances",
        "offset": 0,
        "slot": "9",
        "type": "t_mapping(t_address,t_uint256)"
      },
      {
        "astId": 2974,
        "contract": "contracts/core/modules/follow/FlowmiFollowModule.sol:FlowmiFollowModule",
        "label": "s_index",
        "offset": 0,
        "slot": "10",
        "type": "t_uint256"
      },
      {
        "astId": 2976,
        "contract": "contracts/core/modules/follow/FlowmiFollowModule.sol:FlowmiFollowModule",
        "label": "s_indexOfWinner",
        "offset": 0,
        "slot": "11",
        "type": "t_uint256"
      },
      {
        "astId": 2978,
        "contract": "contracts/core/modules/follow/FlowmiFollowModule.sol:FlowmiFollowModule",
        "label": "profileid",
        "offset": 0,
        "slot": "12",
        "type": "t_address_payable"
      },
      {
        "astId": 2980,
        "contract": "contracts/core/modules/follow/FlowmiFollowModule.sol:FlowmiFollowModule",
        "label": "s_recentWinner",
        "offset": 0,
        "slot": "13",
        "type": "t_address_payable"
      },
      {
        "astId": 2982,
        "contract": "contracts/core/modules/follow/FlowmiFollowModule.sol:FlowmiFollowModule",
        "label": "i_flowmiOwner",
        "offset": 0,
        "slot": "14",
        "type": "t_address_payable"
      },
      {
        "astId": 2986,
        "contract": "contracts/core/modules/follow/FlowmiFollowModule.sol:FlowmiFollowModule",
        "label": "_withdrawAmmount",
        "offset": 0,
        "slot": "15",
        "type": "t_uint256"
      },
      {
        "astId": 2992,
        "contract": "contracts/core/modules/follow/FlowmiFollowModule.sol:FlowmiFollowModule",
        "label": "s_profileToFollowers",
        "offset": 0,
        "slot": "16",
        "type": "t_mapping(t_address,t_mapping(t_uint256,t_address_payable))"
      },
      {
        "astId": 2996,
        "contract": "contracts/core/modules/follow/FlowmiFollowModule.sol:FlowmiFollowModule",
        "label": "s_profileToFollowersCount",
        "offset": 0,
        "slot": "17",
        "type": "t_mapping(t_address,t_uint256)"
      },
      {
        "astId": 3000,
        "contract": "contracts/core/modules/follow/FlowmiFollowModule.sol:FlowmiFollowModule",
        "label": "s_profileToFunds",
        "offset": 0,
        "slot": "18",
        "type": "t_mapping(t_address,t_uint256)"
      },
      {
        "astId": 3004,
        "contract": "contracts/core/modules/follow/FlowmiFollowModule.sol:FlowmiFollowModule",
        "label": "s_profileIsFlowmi",
        "offset": 0,
        "slot": "19",
        "type": "t_mapping(t_address,t_bool)"
      },
      {
        "astId": 3008,
        "contract": "contracts/core/modules/follow/FlowmiFollowModule.sol:FlowmiFollowModule",
        "label": "s_profileToWins",
        "offset": 0,
        "slot": "20",
        "type": "t_mapping(t_address,t_uint256)"
      },
      {
        "astId": 3012,
        "contract": "contracts/core/modules/follow/FlowmiFollowModule.sol:FlowmiFollowModule",
        "label": "s_profileToRaffles",
        "offset": 0,
        "slot": "21",
        "type": "t_mapping(t_address,t_uint256)"
      },
      {
        "astId": 3016,
        "contract": "contracts/core/modules/follow/FlowmiFollowModule.sol:FlowmiFollowModule",
        "label": "s_profileToThisRaffleFunds",
        "offset": 0,
        "slot": "22",
        "type": "t_mapping(t_address,t_uint256)"
      },
      {
        "astId": 3025,
        "contract": "contracts/core/modules/follow/FlowmiFollowModule.sol:FlowmiFollowModule",
        "label": "_dataByProfile",
        "offset": 0,
        "slot": "23",
        "type": "t_mapping(t_uint256,t_struct(ProfileData)2852_storage)"
      }
    ],
    "types": {
      "t_address": {
        "encoding": "inplace",
        "label": "address",
        "numberOfBytes": "20"
      },
      "t_address_payable": {
        "encoding": "inplace",
        "label": "address payable",
        "numberOfBytes": "20"
      },
      "t_array(t_uint256)dyn_storage": {
        "base": "t_uint256",
        "encoding": "dynamic_array",
        "label": "uint256[]",
        "numberOfBytes": "32"
      },
      "t_bool": {
        "encoding": "inplace",
        "label": "bool",
        "numberOfBytes": "1"
      },
      "t_contract(AggregatorV3Interface)1803": {
        "encoding": "inplace",
        "label": "contract AggregatorV3Interface",
        "numberOfBytes": "20"
      },
      "t_contract(IERC20)1970": {
        "encoding": "inplace",
        "label": "contract IERC20",
        "numberOfBytes": "20"
      },
      "t_contract(VRFCoordinatorV2Interface)1892": {
        "encoding": "inplace",
        "label": "contract VRFCoordinatorV2Interface",
        "numberOfBytes": "20"
      },
      "t_enum(RaffleState)2865": {
        "encoding": "inplace",
        "label": "enum FlowmiFollowModule.RaffleState",
        "numberOfBytes": "1"
      },
      "t_mapping(t_address,t_bool)": {
        "encoding": "mapping",
        "key": "t_address",
        "label": "mapping(address => bool)",
        "numberOfBytes": "32",
        "value": "t_bool"
      },
      "t_mapping(t_address,t_mapping(t_uint256,t_address_payable))": {
        "encoding": "mapping",
        "key": "t_address",
        "label": "mapping(address => mapping(uint256 => address payable))",
        "numberOfBytes": "32",
        "value": "t_mapping(t_uint256,t_address_payable)"
      },
      "t_mapping(t_address,t_uint256)": {
        "encoding": "mapping",
        "key": "t_address",
        "label": "mapping(address => uint256)",
        "numberOfBytes": "32",
        "value": "t_uint256"
      },
      "t_mapping(t_uint256,t_address_payable)": {
        "encoding": "mapping",
        "key": "t_uint256",
        "label": "mapping(uint256 => address payable)",
        "numberOfBytes": "32",
        "value": "t_address_payable"
      },
      "t_mapping(t_uint256,t_struct(ProfileData)2852_storage)": {
        "encoding": "mapping",
        "key": "t_uint256",
        "label": "mapping(uint256 => struct ProfileData)",
        "numberOfBytes": "32",
        "value": "t_struct(ProfileData)2852_storage"
      },
      "t_mapping(t_uint256,t_struct(RequestStatus)2907_storage)": {
        "encoding": "mapping",
        "key": "t_uint256",
        "label": "mapping(uint256 => struct FlowmiFollowModule.RequestStatus)",
        "numberOfBytes": "32",
        "value": "t_struct(RequestStatus)2907_storage"
      },
      "t_struct(ProfileData)2852_storage": {
        "encoding": "inplace",
        "label": "struct ProfileData",
        "members": [
          {
            "astId": 2847,
            "contract": "contracts/core/modules/follow/FlowmiFollowModule.sol:FlowmiFollowModule",
            "label": "currency",
            "offset": 0,
            "slot": "0",
            "type": "t_address"
          },
          {
            "astId": 2849,
            "contract": "contracts/core/modules/follow/FlowmiFollowModule.sol:FlowmiFollowModule",
            "label": "amount",
            "offset": 0,
            "slot": "1",
            "type": "t_uint256"
          },
          {
            "astId": 2851,
            "contract": "contracts/core/modules/follow/FlowmiFollowModule.sol:FlowmiFollowModule",
            "label": "recipient",
            "offset": 0,
            "slot": "2",
            "type": "t_address"
          }
        ],
        "numberOfBytes": "96"
      },
      "t_struct(RequestStatus)2907_storage": {
        "encoding": "inplace",
        "label": "struct FlowmiFollowModule.RequestStatus",
        "members": [
          {
            "astId": 2901,
            "contract": "contracts/core/modules/follow/FlowmiFollowModule.sol:FlowmiFollowModule",
            "label": "fulfilled",
            "offset": 0,
            "slot": "0",
            "type": "t_bool"
          },
          {
            "astId": 2903,
            "contract": "contracts/core/modules/follow/FlowmiFollowModule.sol:FlowmiFollowModule",
            "label": "exists",
            "offset": 1,
            "slot": "0",
            "type": "t_bool"
          },
          {
            "astId": 2906,
            "contract": "contracts/core/modules/follow/FlowmiFollowModule.sol:FlowmiFollowModule",
            "label": "randomWords",
            "offset": 0,
            "slot": "1",
            "type": "t_array(t_uint256)dyn_storage"
          }
        ],
        "numberOfBytes": "64"
      },
      "t_uint256": {
        "encoding": "inplace",
        "label": "uint256",
        "numberOfBytes": "32"
      }
    }
  }
}