{
  "address": "0x832B3a7038e23cbCb84bE6adfFEDE478BA174130",
  "abi": [
    {
      "inputs": [
        {
          "internalType": "address",
          "name": "priceFeed",
          "type": "address"
        },
        {
          "internalType": "address",
          "name": "vrfCoordinatorV2",
          "type": "address"
        },
        {
          "internalType": "uint64",
          "name": "subscriptionId",
          "type": "uint64"
        },
        {
          "internalType": "bytes32",
          "name": "gasLane",
          "type": "bytes32"
        },
        {
          "internalType": "uint32",
          "name": "callbackGasLimit",
          "type": "uint32"
        },
        {
          "internalType": "address",
          "name": "hub",
          "type": "address"
        },
        {
          "internalType": "address",
          "name": "moduleGlobals",
          "type": "address"
        }
      ],
      "stateMutability": "nonpayable",
      "type": "constructor"
    },
    {
      "inputs": [],
      "name": "Flowmi__CantFlowmiFollowYourself",
      "type": "error"
    },
    {
      "inputs": [],
      "name": "Flowmi__MustBeRegisteredFlowmi",
      "type": "error"
    },
    {
      "inputs": [],
      "name": "Flowmi__SendMoreToEnterFlowmi",
      "type": "error"
    },
    {
      "inputs": [],
      "name": "Flowmi__TransferFailed",
      "type": "error"
    },
    {
      "inputs": [],
      "name": "InitParamsInvalid",
      "type": "error"
    },
    {
      "inputs": [],
      "name": "ModuleDataMismatch",
      "type": "error"
    },
    {
      "inputs": [],
      "name": "NotHub",
      "type": "error"
    },
    {
      "inputs": [
        {
          "internalType": "address",
          "name": "have",
          "type": "address"
        },
        {
          "internalType": "address",
          "name": "want",
          "type": "address"
        }
      ],
      "name": "OnlyCoordinatorCanFulfill",
      "type": "error"
    },
    {
      "anonymous": false,
      "inputs": [
        {
          "indexed": false,
          "internalType": "uint256",
          "name": "requestId",
          "type": "uint256"
        },
        {
          "indexed": false,
          "internalType": "uint256[]",
          "name": "randomWords",
          "type": "uint256[]"
        }
      ],
      "name": "RequestFulfilled",
      "type": "event"
    },
    {
      "anonymous": false,
      "inputs": [
        {
          "indexed": false,
          "internalType": "uint256",
          "name": "requestId",
          "type": "uint256"
        },
        {
          "indexed": false,
          "internalType": "uint32",
          "name": "numWords",
          "type": "uint32"
        }
      ],
      "name": "RequestSent",
      "type": "event"
    },
    {
      "stateMutability": "payable",
      "type": "fallback"
    },
    {
      "inputs": [],
      "name": "HUB",
      "outputs": [
        {
          "internalType": "address",
          "name": "",
          "type": "address"
        }
      ],
      "stateMutability": "view",
      "type": "function"
    },
    {
      "inputs": [],
      "name": "MODULE_GLOBALS",
      "outputs": [
        {
          "internalType": "address",
          "name": "",
          "type": "address"
        }
      ],
      "stateMutability": "view",
      "type": "function"
    },
    {
      "inputs": [
        {
          "internalType": "uint256",
          "name": "profileId",
          "type": "uint256"
        },
        {
          "internalType": "address",
          "name": "from",
          "type": "address"
        },
        {
          "internalType": "address",
          "name": "to",
          "type": "address"
        },
        {
          "internalType": "uint256",
          "name": "followNFTTokenId",
          "type": "uint256"
        }
      ],
      "name": "followModuleTransferHook",
      "outputs": [],
      "stateMutability": "nonpayable",
      "type": "function"
    },
    {
      "inputs": [],
      "name": "getBalance",
      "outputs": [
        {
          "internalType": "uint256",
          "name": "",
          "type": "uint256"
        }
      ],
      "stateMutability": "view",
      "type": "function"
    },
    {
      "inputs": [],
      "name": "getFlowmiCost",
      "outputs": [
        {
          "internalType": "uint256",
          "name": "",
          "type": "uint256"
        }
      ],
      "stateMutability": "pure",
      "type": "function"
    },
    {
      "inputs": [],
      "name": "getFlowmiState",
      "outputs": [
        {
          "internalType": "uint256",
          "name": "",
          "type": "uint256"
        }
      ],
      "stateMutability": "pure",
      "type": "function"
    },
    {
      "inputs": [
        {
          "internalType": "address",
          "name": "_profileid",
          "type": "address"
        },
        {
          "internalType": "uint256",
          "name": "_index",
          "type": "uint256"
        }
      ],
      "name": "getFollowerOfIndex",
      "outputs": [
        {
          "internalType": "address",
          "name": "",
          "type": "address"
        }
      ],
      "stateMutability": "view",
      "type": "function"
    },
    {
      "inputs": [
        {
          "internalType": "address",
          "name": "_profileid",
          "type": "address"
        }
      ],
      "name": "getFundsToRaffle",
      "outputs": [
        {
          "internalType": "uint256",
          "name": "",
          "type": "uint256"
        }
      ],
      "stateMutability": "view",
      "type": "function"
    },
    {
      "inputs": [],
      "name": "getGoal",
      "outputs": [
        {
          "internalType": "uint256",
          "name": "",
          "type": "uint256"
        }
      ],
      "stateMutability": "pure",
      "type": "function"
    },
    {
      "inputs": [],
      "name": "getLastWinnerAddress",
      "outputs": [
        {
          "internalType": "address",
          "name": "",
          "type": "address"
        }
      ],
      "stateMutability": "view",
      "type": "function"
    },
    {
      "inputs": [],
      "name": "getLastWinnerIndex",
      "outputs": [
        {
          "internalType": "uint256",
          "name": "",
          "type": "uint256"
        }
      ],
      "stateMutability": "view",
      "type": "function"
    },
    {
      "inputs": [
        {
          "internalType": "address",
          "name": "_profileid",
          "type": "address"
        }
      ],
      "name": "getNumberOfFollowers",
      "outputs": [
        {
          "internalType": "uint256",
          "name": "",
          "type": "uint256"
        }
      ],
      "stateMutability": "view",
      "type": "function"
    },
    {
      "inputs": [],
      "name": "getPool",
      "outputs": [],
      "stateMutability": "nonpayable",
      "type": "function"
    },
    {
      "inputs": [],
      "name": "getPriceFeed",
      "outputs": [
        {
          "internalType": "uint256",
          "name": "",
          "type": "uint256"
        }
      ],
      "stateMutability": "view",
      "type": "function"
    },
    {
      "inputs": [
        {
          "internalType": "uint256",
          "name": "profileId",
          "type": "uint256"
        }
      ],
      "name": "getProfileData",
      "outputs": [
        {
          "components": [
            {
              "internalType": "address",
              "name": "currency",
              "type": "address"
            },
            {
              "internalType": "uint256",
              "name": "amount",
              "type": "uint256"
            },
            {
              "internalType": "address",
              "name": "recipient",
              "type": "address"
            }
          ],
          "internalType": "struct ProfileData",
          "name": "",
          "type": "tuple"
        }
      ],
      "stateMutability": "view",
      "type": "function"
    },
    {
      "inputs": [
        {
          "internalType": "address",
          "name": "_profileid",
          "type": "address"
        }
      ],
      "name": "getProfileToRaffles",
      "outputs": [
        {
          "internalType": "uint256",
          "name": "",
          "type": "uint256"
        }
      ],
      "stateMutability": "view",
      "type": "function"
    },
    {
      "inputs": [
        {
          "internalType": "address",
          "name": "_profileid",
          "type": "address"
        }
      ],
      "name": "getProfileToWins",
      "outputs": [
        {
          "internalType": "uint256",
          "name": "",
          "type": "uint256"
        }
      ],
      "stateMutability": "view",
      "type": "function"
    },
    {
      "inputs": [
        {
          "internalType": "uint256",
          "name": "_requestId",
          "type": "uint256"
        }
      ],
      "name": "getRequestStatus",
      "outputs": [
        {
          "internalType": "bool",
          "name": "fulfilled",
          "type": "bool"
        },
        {
          "internalType": "uint256[]",
          "name": "randomWords",
          "type": "uint256[]"
        }
      ],
      "stateMutability": "view",
      "type": "function"
    },
    {
      "inputs": [
        {
          "internalType": "address",
          "name": "_profileid",
          "type": "address"
        }
      ],
      "name": "getTotalFundedProfile",
      "outputs": [
        {
          "internalType": "uint256",
          "name": "",
          "type": "uint256"
        }
      ],
      "stateMutability": "view",
      "type": "function"
    },
    {
      "inputs": [
        {
          "internalType": "uint256",
          "name": "profileId",
          "type": "uint256"
        },
        {
          "internalType": "bytes",
          "name": "data",
          "type": "bytes"
        }
      ],
      "name": "initializeFollowModule",
      "outputs": [
        {
          "internalType": "bytes",
          "name": "",
          "type": "bytes"
        }
      ],
      "stateMutability": "nonpayable",
      "type": "function"
    },
    {
      "inputs": [
        {
          "internalType": "uint256",
          "name": "profileId",
          "type": "uint256"
        },
        {
          "internalType": "address",
          "name": "follower",
          "type": "address"
        },
        {
          "internalType": "uint256",
          "name": "followNFTTokenId",
          "type": "uint256"
        }
      ],
      "name": "isFollowing",
      "outputs": [
        {
          "internalType": "bool",
          "name": "",
          "type": "bool"
        }
      ],
      "stateMutability": "view",
      "type": "function"
    },
    {
      "inputs": [
        {
          "internalType": "address",
          "name": "_profileid",
          "type": "address"
        }
      ],
      "name": "isRegisteredProfile",
      "outputs": [
        {
          "internalType": "bool",
          "name": "",
          "type": "bool"
        }
      ],
      "stateMutability": "view",
      "type": "function"
    },
    {
      "inputs": [],
      "name": "lastRequestId",
      "outputs": [
        {
          "internalType": "uint256",
          "name": "",
          "type": "uint256"
        }
      ],
      "stateMutability": "view",
      "type": "function"
    },
    {
      "inputs": [
        {
          "internalType": "address",
          "name": "follower",
          "type": "address"
        },
        {
          "internalType": "uint256",
          "name": "profileId",
          "type": "uint256"
        },
        {
          "internalType": "bytes",
          "name": "data",
          "type": "bytes"
        }
      ],
      "name": "processFollow",
      "outputs": [],
      "stateMutability": "nonpayable",
      "type": "function"
    },
    {
      "inputs": [
        {
          "internalType": "uint256",
          "name": "requestId",
          "type": "uint256"
        },
        {
          "internalType": "uint256[]",
          "name": "randomWords",
          "type": "uint256[]"
        }
      ],
      "name": "rawFulfillRandomWords",
      "outputs": [],
      "stateMutability": "nonpayable",
      "type": "function"
    },
    {
      "inputs": [],
      "name": "registerProfile",
      "outputs": [],
      "stateMutability": "nonpayable",
      "type": "function"
    },
    {
      "inputs": [
        {
          "internalType": "uint256",
          "name": "",
          "type": "uint256"
        }
      ],
      "name": "requestIds",
      "outputs": [
        {
          "internalType": "uint256",
          "name": "",
          "type": "uint256"
        }
      ],
      "stateMutability": "view",
      "type": "function"
    },
    {
      "inputs": [
        {
          "internalType": "uint256",
          "name": "",
          "type": "uint256"
        }
      ],
      "name": "s_requests",
      "outputs": [
        {
          "internalType": "bool",
          "name": "fulfilled",
          "type": "bool"
        },
        {
          "internalType": "bool",
          "name": "exists",
          "type": "bool"
        }
      ],
      "stateMutability": "view",
      "type": "function"
    },
    {
      "inputs": [],
      "name": "unregisterProfile",
      "outputs": [],
      "stateMutability": "nonpayable",
      "type": "function"
    },
    {
      "inputs": [],
      "name": "withdraw",
      "outputs": [],
      "stateMutability": "nonpayable",
      "type": "function"
    },
    {
      "stateMutability": "payable",
      "type": "receive"
    }
  ],
  "transactionHash": "0xdb713fedcbc8da88f4d3c9b03906a24b475dc047acaeeecf7f1fd0d5a0f62e6c",
  "args": [
    "0xd0D5e3DB44DE05E9F294BB0a3bEEaF030DE24Ada",
    "0x7a1BaC17Ccc5b313516C5E16fb24f7659aA5ebed",
    "2313",
    "0x4b09e658ed251bcafeebbc69400383d49f344ace09b9576fe248bb02c003fe9f",
    "2500000",
    "0x7582177F9E536aB0b6c721e11f383C326F2Ad1D5",
    "0xcbCC5b9611d22d11403373432642Df9Ef7Dd81AD"
  ],
  "numDeployments": 2,
  "solcInputHash": "752991bfc7e1dc8c667df548c195ac58",
  "bytecode": "0x6101a060405260036101409081525067016345785d8a00006101609081525060006005553480156200003057600080fd5b5060405162003d5238038062003d528339818101604052810190620000569190620004ee565b8181878073ffffffffffffffffffffffffffffffffffffffff1660808173ffffffffffffffffffffffffffffffffffffffff168152505050600073ffffffffffffffffffffffffffffffffffffffff168173ffffffffffffffffffffffffffffffffffffffff161415620000f6576040517f48be0eb300000000000000000000000000000000000000000000000000000000815260040160405180910390fd5b8073ffffffffffffffffffffffffffffffffffffffff1660a08173ffffffffffffffffffffffffffffffffffffffff16815250508073ffffffffffffffffffffffffffffffffffffffff167f4e84a529f4c627b5e787037d117873af1018768804cca3c7f0d47041fe2c89ed42604051620001729190620005bc565b60405180910390a250600073ffffffffffffffffffffffffffffffffffffffff168173ffffffffffffffffffffffffffffffffffffffff161415620001e3576040517f48be0eb300000000000000000000000000000000000000000000000000000000815260040160405180910390fd5b8073ffffffffffffffffffffffffffffffffffffffff1660c08173ffffffffffffffffffffffffffffffffffffffff16815250508073ffffffffffffffffffffffffffffffffffffffff167ff1a1fa6b64aa95186f5a1285e76198d0da80d9c5a88062641d447f1d7c54e56c426040516200025f9190620005bc565b60405180910390a25086600060016101000a81548173ffffffffffffffffffffffffffffffffffffffff021916908373ffffffffffffffffffffffffffffffffffffffff16021790555033600960006101000a81548173ffffffffffffffffffffffffffffffffffffffff021916908373ffffffffffffffffffffffffffffffffffffffff1602179055506101605161014051620002fe919062000608565b610180818152505085600160006101000a81548173ffffffffffffffffffffffffffffffffffffffff021916908373ffffffffffffffffffffffffffffffffffffffff16021790555060008060006101000a81548160ff021916908360018111156200036f576200036e62000669565b5b02179055508467ffffffffffffffff166101208167ffffffffffffffff16815250508360e081815250508263ffffffff166101008163ffffffff168152505060006006819055505050505050505062000698565b600080fd5b600073ffffffffffffffffffffffffffffffffffffffff82169050919050565b6000620003f582620003c8565b9050919050565b6200040781620003e8565b81146200041357600080fd5b50565b6000815190506200042781620003fc565b92915050565b600067ffffffffffffffff82169050919050565b6200044c816200042d565b81146200045857600080fd5b50565b6000815190506200046c8162000441565b92915050565b6000819050919050565b620004878162000472565b81146200049357600080fd5b50565b600081519050620004a7816200047c565b92915050565b600063ffffffff82169050919050565b620004c881620004ad565b8114620004d457600080fd5b50565b600081519050620004e881620004bd565b92915050565b600080600080600080600060e0888a03121562000510576200050f620003c3565b5b6000620005208a828b0162000416565b9750506020620005338a828b0162000416565b9650506040620005468a828b016200045b565b9550506060620005598a828b0162000496565b94505060806200056c8a828b01620004d7565b93505060a06200057f8a828b0162000416565b92505060c0620005928a828b0162000416565b91505092959891949750929550565b6000819050919050565b620005b681620005a1565b82525050565b6000602082019050620005d36000830184620005ab565b92915050565b7f4e487b7100000000000000000000000000000000000000000000000000000000600052601160045260246000fd5b60006200061582620005a1565b91506200062283620005a1565b9250817fffffffffffffffffffffffffffffffffffffffffffffffffffffffffffffffff04831182151516156200065e576200065d620005d9565b5b828202905092915050565b7f4e487b7100000000000000000000000000000000000000000000000000000000600052602160045260246000fd5b60805160a05160c05160e05161010051610120516101405161016051610180516135fc620007566000396000612410015260008181610b2a0152818161185401526118c8015260008181610dce01528181610fc801528181611914015261207a01526000611d8f01526000611db201526000611d6e0152600081816108560152818161116e015281816115ab01526118ee01526000818161158501528181611c5c01526122c5015260008181610f060152610f5a01526135fc6000f3fe6080604052600436106101d05760003560e01c806388ffe851116100f7578063b97a7d2411610095578063db4dcb3611610064578063db4dcb36146106bd578063ec4a8a38146106fa578063ee98b5d214610711578063fc2a88c31461074e576101d7565b8063b97a7d24146105fe578063bd1ee94614610629578063c2a3397d14610654578063d8a4676f1461067f576101d7565b80639e87a5cd116100d15780639e87a5cd1461053f578063a168fa891461056a578063a47acca7146105a8578063a4c52b86146105d3576101d7565b806388ffe8511461049a5780639713958a146104c5578063997ef92d14610502576101d7565b80633ccfd60b1161016f57806355884e601161013e57806355884e60146103de57806373b9fb85146103f557806381496975146104325780638796ba8c1461045d576101d7565b80633ccfd60b14610310578063451c3d0c1461032757806345b7f60a1461036457806347c6724c146103a1576101d7565b806312065fe0116101ab57806312065fe0146102565780631fe543e314610281578063367b4137146102aa5780633cb22cc4146102e7576101d7565b8062dc65f2146101d9578063026b1d5f146102165780630e096ae11461022d576101d7565b366101d757005b005b3480156101e557600080fd5b5061020060048036038101906101fb91906125e5565b610779565b60405161020d919061262b565b60405180910390f35b34801561022257600080fd5b5061022b6107c2565b005b34801561023957600080fd5b50610254600480360381019061024f91906126d7565b610854565b005b34801561026257600080fd5b5061026b610efc565b604051610278919061262b565b60405180910390f35b34801561028d57600080fd5b506102a860048036038101906102a3919061289a565b610f04565b005b3480156102b657600080fd5b506102d160048036038101906102cc91906125e5565b610fc4565b6040516102de919061262b565b60405180910390f35b3480156102f357600080fd5b5061030e600480360381019061030991906128f6565b611038565b005b34801561031c57600080fd5b5061032561103e565b005b34801561033357600080fd5b5061034e6004803603810190610349919061295d565b611169565b60405161035b91906129cb565b60405180910390f35b34801561037057600080fd5b5061038b600480360381019061038691906129e6565b611386565b6040516103989190612a73565b60405180910390f35b3480156103ad57600080fd5b506103c860048036038101906103c391906125e5565b611469565b6040516103d5919061262b565b60405180910390f35b3480156103ea57600080fd5b506103f36114b2565b005b34801561040157600080fd5b5061041c600480360381019061041791906125e5565b61150c565b604051610429919061262b565b60405180910390f35b34801561043e57600080fd5b50610447611555565b604051610454919061262b565b60405180910390f35b34801561046957600080fd5b50610484600480360381019061047f91906129e6565b61155f565b604051610491919061262b565b60405180910390f35b3480156104a657600080fd5b506104af611583565b6040516104bc9190612a9d565b60405180910390f35b3480156104d157600080fd5b506104ec60048036038101906104e79190612ab8565b6115a7565b6040516104f99190612ba0565b60405180910390f35b34801561050e57600080fd5b50610529600480360381019061052491906125e5565b6117e1565b604051610536919061262b565b60405180910390f35b34801561054b57600080fd5b5061055461182a565b604051610561919061262b565b60405180910390f35b34801561057657600080fd5b50610591600480360381019061058c91906129e6565b611886565b60405161059f929190612bc2565b60405180910390f35b3480156105b457600080fd5b506105bd6118c4565b6040516105ca919061262b565b60405180910390f35b3480156105df57600080fd5b506105e86118ec565b6040516105f59190612a9d565b60405180910390f35b34801561060a57600080fd5b50610613611910565b604051610620919061262b565b60405180910390f35b34801561063557600080fd5b5061063e611938565b60405161064b919061262b565b60405180910390f35b34801561066057600080fd5b50610669611941565b6040516106769190612a9d565b60405180910390f35b34801561068b57600080fd5b506106a660048036038101906106a191906129e6565b61196b565b6040516106b4929190612c9a565b60405180910390f35b3480156106c957600080fd5b506106e460048036038101906106df91906125e5565b611a96565b6040516106f191906129cb565b60405180910390f35b34801561070657600080fd5b5061070f611aec565b005b34801561071d57600080fd5b5061073860048036038101906107339190612cca565b611b46565b6040516107459190612a9d565b60405180910390f35b34801561075a57600080fd5b50610763611bc1565b604051610770919061262b565b60405180910390f35b6000600b60008373ffffffffffffffffffffffffffffffffffffffff1673ffffffffffffffffffffffffffffffffffffffff168152602001908152602001600020549050919050565b600960009054906101000a900473ffffffffffffffffffffffffffffffffffffffff1673ffffffffffffffffffffffffffffffffffffffff163373ffffffffffffffffffffffffffffffffffffffff1614610852576040517f08c379a000000000000000000000000000000000000000000000000000000000815260040161084990612d67565b60405180910390fd5b565b7f000000000000000000000000000000000000000000000000000000000000000073ffffffffffffffffffffffffffffffffffffffff163373ffffffffffffffffffffffffffffffffffffffff16146108d9576040517f9de9741800000000000000000000000000000000000000000000000000000000815260040160405180910390fd5b60006010600085815260200190815260200160002060010154905060006010600086815260200190815260200160002060000160009054906101000a900473ffffffffffffffffffffffffffffffffffffffff16905061093b84848385611bc7565b600080610946611c57565b9150915060006010600089815260200190815260200160002060020160009054906101000a900473ffffffffffffffffffffffffffffffffffffffff169050600061271061ffff168361ffff168761099e9190612db6565b6109a89190612e3f565b9050600081876109b89190612e70565b905082600760006101000a81548173ffffffffffffffffffffffffffffffffffffffff021916908373ffffffffffffffffffffffffffffffffffffffff160217905550600d6000600760009054906101000a900473ffffffffffffffffffffffffffffffffffffffff1673ffffffffffffffffffffffffffffffffffffffff1673ffffffffffffffffffffffffffffffffffffffff16815260200190815260200160002060009054906101000a900460ff16610aa0576040517fd7ac613c00000000000000000000000000000000000000000000000000000000815260040160405180910390fd5b600760009054906101000a900473ffffffffffffffffffffffffffffffffffffffff1673ffffffffffffffffffffffffffffffffffffffff168b73ffffffffffffffffffffffffffffffffffffffff161415610b28576040517f6860e3cf00000000000000000000000000000000000000000000000000000000815260040160405180910390fd5b7f0000000000000000000000000000000000000000000000000000000000000000610b7e600060019054906101000a900473ffffffffffffffffffffffffffffffffffffffff1689611cf090919063ffffffff16565b1015610bb6576040517fd8a8938f00000000000000000000000000000000000000000000000000000000815260040160405180910390fd5b600b6000600760009054906101000a900473ffffffffffffffffffffffffffffffffffffffff1673ffffffffffffffffffffffffffffffffffffffff1673ffffffffffffffffffffffffffffffffffffffff168152602001908152602001600020546005819055506001600c6000600760009054906101000a900473ffffffffffffffffffffffffffffffffffffffff1673ffffffffffffffffffffffffffffffffffffffff1673ffffffffffffffffffffffffffffffffffffffff1681526020019081526020016000206000828254610c909190612ea4565b925050819055508a600a6000600760009054906101000a900473ffffffffffffffffffffffffffffffffffffffff1673ffffffffffffffffffffffffffffffffffffffff1673ffffffffffffffffffffffffffffffffffffffff1681526020019081526020016000206000600554815260200190815260200160002060006101000a81548173ffffffffffffffffffffffffffffffffffffffff021916908373ffffffffffffffffffffffffffffffffffffffff16021790555060056000815480929190610d5d90612efa565b9190505550600554600b6000600760009054906101000a900473ffffffffffffffffffffffffffffffffffffffff1673ffffffffffffffffffffffffffffffffffffffff1673ffffffffffffffffffffffffffffffffffffffff1681526020019081526020016000208190555060007f0000000000000000000000000000000000000000000000000000000000000000600554610dfa9190612f43565b148015610e6957506000600b6000600760009054906101000a900473ffffffffffffffffffffffffffffffffffffffff1673ffffffffffffffffffffffffffffffffffffffff1673ffffffffffffffffffffffffffffffffffffffff1681526020019081526020016000205414155b15610eef57600f6000600760009054906101000a900473ffffffffffffffffffffffffffffffffffffffff1673ffffffffffffffffffffffffffffffffffffffff1673ffffffffffffffffffffffffffffffffffffffff1681526020019081526020016000206000815480929190610ee090612efa565b9190505550610eed611d2c565b505b5050505050505050505050565b600047905090565b7f000000000000000000000000000000000000000000000000000000000000000073ffffffffffffffffffffffffffffffffffffffff163373ffffffffffffffffffffffffffffffffffffffff1614610fb657337f00000000000000000000000000000000000000000000000000000000000000006040517f1cf993f4000000000000000000000000000000000000000000000000000000008152600401610fad929190612f74565b60405180910390fd5b610fc08282611f82565b5050565b60007f0000000000000000000000000000000000000000000000000000000000000000600c60008473ffffffffffffffffffffffffffffffffffffffff1673ffffffffffffffffffffffffffffffffffffffff168152602001908152602001600020546110319190612f43565b9050919050565b50505050565b600960009054906101000a900473ffffffffffffffffffffffffffffffffffffffff1673ffffffffffffffffffffffffffffffffffffffff163373ffffffffffffffffffffffffffffffffffffffff16146110ce576040517f08c379a00000000000000000000000000000000000000000000000000000000081526004016110c590612d67565b60405180910390fd5b6000600960009054906101000a900473ffffffffffffffffffffffffffffffffffffffff1673ffffffffffffffffffffffffffffffffffffffff164760405161111690612fce565b60006040518083038185875af1925050503d8060008114611153576040519150601f19603f3d011682016040523d82523d6000602084013e611158565b606091505b505090508061116657600080fd5b50565b6000807f000000000000000000000000000000000000000000000000000000000000000073ffffffffffffffffffffffffffffffffffffffff1663a9ec6563866040518263ffffffff1660e01b81526004016111c5919061262b565b602060405180830381865afa1580156111e2573d6000803e3d6000fd5b505050506040513d601f19601f820116820180604052508101906112069190612ff8565b9050600073ffffffffffffffffffffffffffffffffffffffff168173ffffffffffffffffffffffffffffffffffffffff16141561124757600091505061137f565b600083146112fc578373ffffffffffffffffffffffffffffffffffffffff168173ffffffffffffffffffffffffffffffffffffffff16636352211e856040518263ffffffff1660e01b815260040161129f919061262b565b602060405180830381865afa1580156112bc573d6000803e3d6000fd5b505050506040513d601f19601f820116820180604052508101906112e09190612ff8565b73ffffffffffffffffffffffffffffffffffffffff161461137b565b60008173ffffffffffffffffffffffffffffffffffffffff166370a08231866040518263ffffffff1660e01b81526004016113379190612a9d565b602060405180830381865afa158015611354573d6000803e3d6000fd5b505050506040513d601f19601f82011682018060405250810190611378919061303a565b14155b9150505b9392505050565b61138e6124bc565b601060008381526020019081526020016000206040518060600160405290816000820160009054906101000a900473ffffffffffffffffffffffffffffffffffffffff1673ffffffffffffffffffffffffffffffffffffffff1673ffffffffffffffffffffffffffffffffffffffff168152602001600182015481526020016002820160009054906101000a900473ffffffffffffffffffffffffffffffffffffffff1673ffffffffffffffffffffffffffffffffffffffff1673ffffffffffffffffffffffffffffffffffffffff16815250509050919050565b6000600e60008373ffffffffffffffffffffffffffffffffffffffff1673ffffffffffffffffffffffffffffffffffffffff168152602001908152602001600020549050919050565b6000600d60003373ffffffffffffffffffffffffffffffffffffffff1673ffffffffffffffffffffffffffffffffffffffff16815260200190815260200160002060006101000a81548160ff021916908315150217905550565b6000600f60008373ffffffffffffffffffffffffffffffffffffffff1673ffffffffffffffffffffffffffffffffffffffff168152602001908152602001600020549050919050565b6000600654905090565b6003818154811061156f57600080fd5b906000526020600020016000915090505481565b7f000000000000000000000000000000000000000000000000000000000000000081565b60607f000000000000000000000000000000000000000000000000000000000000000073ffffffffffffffffffffffffffffffffffffffff163373ffffffffffffffffffffffffffffffffffffffff161461162e576040517f9de9741800000000000000000000000000000000000000000000000000000000815260040160405180910390fd5b6000806000858581019061164291906130a5565b925092509250611651826122c1565b15806116895750600073ffffffffffffffffffffffffffffffffffffffff168173ffffffffffffffffffffffffffffffffffffffff16145b806116945750600083145b156116cb576040517f48be0eb300000000000000000000000000000000000000000000000000000000815260040160405180910390fd5b826010600089815260200190815260200160002060010181905550816010600089815260200190815260200160002060000160006101000a81548173ffffffffffffffffffffffffffffffffffffffff021916908373ffffffffffffffffffffffffffffffffffffffff160217905550806010600089815260200190815260200160002060020160006101000a81548173ffffffffffffffffffffffffffffffffffffffff021916908373ffffffffffffffffffffffffffffffffffffffff16021790555085858080601f016020809104026020016040519081016040528093929190818152602001838380828437600081840152601f19601f8201169050808301925050505050505093505050509392505050565b6000600c60008373ffffffffffffffffffffffffffffffffffffffff1673ffffffffffffffffffffffffffffffffffffffff168152602001908152602001600020549050919050565b6000611881600060019054906101000a900473ffffffffffffffffffffffffffffffffffffffff167f0000000000000000000000000000000000000000000000000000000000000000611cf090919063ffffffff16565b905090565b60026020528060005260406000206000915090508060000160009054906101000a900460ff16908060000160019054906101000a900460ff16905082565b60007f0000000000000000000000000000000000000000000000000000000000000000905090565b7f000000000000000000000000000000000000000000000000000000000000000081565b60007f0000000000000000000000000000000000000000000000000000000000000000905090565b60006001905090565b6000600860009054906101000a900473ffffffffffffffffffffffffffffffffffffffff16905090565b600060606002600084815260200190815260200160002060000160019054906101000a900460ff166119d2576040517f08c379a00000000000000000000000000000000000000000000000000000000081526004016119c990613144565b60405180910390fd5b6000600260008581526020019081526020016000206040518060600160405290816000820160009054906101000a900460ff161515151581526020016000820160019054906101000a900460ff1615151515815260200160018201805480602002602001604051908101604052809291908181526020018280548015611a7757602002820191906000526020600020905b815481526020019060010190808311611a63575b5050505050815250509050806000015181604001519250925050915091565b6000600d60008373ffffffffffffffffffffffffffffffffffffffff1673ffffffffffffffffffffffffffffffffffffffff16815260200190815260200160002060009054906101000a900460ff169050919050565b6001600d60003373ffffffffffffffffffffffffffffffffffffffff1673ffffffffffffffffffffffffffffffffffffffff16815260200190815260200160002060006101000a81548160ff021916908315150217905550565b6000600a60008473ffffffffffffffffffffffffffffffffffffffff1673ffffffffffffffffffffffffffffffffffffffff168152602001908152602001600020600083815260200190815260200160002060009054906101000a900473ffffffffffffffffffffffffffffffffffffffff16905092915050565b60045481565b6000808585810190611bd99190613164565b915091508281141580611c1857508373ffffffffffffffffffffffffffffffffffffffff168273ffffffffffffffffffffffffffffffffffffffff1614155b15611c4f576040517f46308bd500000000000000000000000000000000000000000000000000000000815260040160405180910390fd5b505050505050565b6000807f000000000000000000000000000000000000000000000000000000000000000073ffffffffffffffffffffffffffffffffffffffff166398f965d16040518163ffffffff1660e01b81526004016040805180830381865afa158015611cc4573d6000803e3d6000fd5b505050506040513d601f19601f82011682018060405250810190611ce891906131de565b915091509091565b600080611cfc83612364565b90506000670de0b6b3a76400008583611d159190612db6565b611d1f9190612e3f565b9050809250505092915050565b6000600160009054906101000a900473ffffffffffffffffffffffffffffffffffffffff1673ffffffffffffffffffffffffffffffffffffffff16635d3b1d307f00000000000000000000000000000000000000000000000000000000000000007f000000000000000000000000000000000000000000000000000000000000000060037f000000000000000000000000000000000000000000000000000000000000000060016040518663ffffffff1660e01b8152600401611df3959493929190613288565b6020604051808303816000875af1158015611e12573d6000803e3d6000fd5b505050506040513d601f19601f82011682018060405250810190611e36919061303a565b90506040518060600160405280600015158152602001600115158152602001600067ffffffffffffffff811115611e7057611e6f61275c565b5b604051908082528060200260200182016040528015611e9e5781602001602082028036833780820191505090505b508152506002600083815260200190815260200160002060008201518160000160006101000a81548160ff02191690831515021790555060208201518160000160016101000a81548160ff0219169083151502179055506040820151816001019080519060200190611f11929190612509565b509050506003819080600181540180825580915050600190039060005260206000200160009091909190915055806004819055507fcc58b13ad3eab50626c6a6300b1d139cd6ebb1688a7cced9461c2f7e762665ee816001604051611f779291906132db565b60405180910390a190565b6002600083815260200190815260200160002060000160019054906101000a900460ff16611fe5576040517f08c379a0000000000000000000000000000000000000000000000000000000008152600401611fdc90613144565b60405180910390fd5b60016002600084815260200190815260200160002060000160006101000a81548160ff0219169083151502179055508060026000848152602001908152602001600020600101908051906020019061203e929190612509565b507ffe2e2d779dba245964d4e3ef9b994be63856fd568bf7d3ca9e224755cb1bd54d8282604051612070929190613304565b60405180910390a17f0000000000000000000000000000000000000000000000000000000000000000816000815181106120ad576120ac613334565b5b60200260200101516120bf9190612f43565b6006819055506001600654600b6000600760009054906101000a900473ffffffffffffffffffffffffffffffffffffffff1673ffffffffffffffffffffffffffffffffffffffff1673ffffffffffffffffffffffffffffffffffffffff168152602001908152602001600020546121369190612e70565b6121409190612e70565b600681905550600a6000600760009054906101000a900473ffffffffffffffffffffffffffffffffffffffff1673ffffffffffffffffffffffffffffffffffffffff1673ffffffffffffffffffffffffffffffffffffffff1681526020019081526020016000206000600654815260200190815260200160002060009054906101000a900473ffffffffffffffffffffffffffffffffffffffff16600860006101000a81548173ffffffffffffffffffffffffffffffffffffffff021916908373ffffffffffffffffffffffffffffffffffffffff160217905550600e6000600860009054906101000a900473ffffffffffffffffffffffffffffffffffffffff1673ffffffffffffffffffffffffffffffffffffffff1673ffffffffffffffffffffffffffffffffffffffff168152602001908152602001600020600081548092919061228d90612efa565b91905055506122bd600860009054906101000a900473ffffffffffffffffffffffffffffffffffffffff166123f5565b5050565b60007f000000000000000000000000000000000000000000000000000000000000000073ffffffffffffffffffffffffffffffffffffffff166343b938c5836040518263ffffffff1660e01b815260040161231c9190612a9d565b602060405180830381865afa158015612339573d6000803e3d6000fd5b505050506040513d601f19601f8201168201806040525081019061235d919061338f565b9050919050565b6000808273ffffffffffffffffffffffffffffffffffffffff1663feaf968c6040518163ffffffff1660e01b815260040160a060405180830381865afa1580156123b2573d6000803e3d6000fd5b505050506040513d601f19601f820116820180604052508101906123d69190613434565b5050509150506402540be400816123ed91906134af565b915050919050565b60008173ffffffffffffffffffffffffffffffffffffffff167f000000000000000000000000000000000000000000000000000000000000000060405161243b90612fce565b60006040518083038185875af1925050503d8060008114612478576040519150601f19603f3d011682016040523d82523d6000602084013e61247d565b606091505b50509050806124b8576040517fad2b2a6b00000000000000000000000000000000000000000000000000000000815260040160405180910390fd5b5050565b6040518060600160405280600073ffffffffffffffffffffffffffffffffffffffff16815260200160008152602001600073ffffffffffffffffffffffffffffffffffffffff1681525090565b828054828255906000526020600020908101928215612545579160200282015b82811115612544578251825591602001919060010190612529565b5b5090506125529190612556565b5090565b5b8082111561256f576000816000905550600101612557565b5090565b6000604051905090565b600080fd5b600080fd5b600073ffffffffffffffffffffffffffffffffffffffff82169050919050565b60006125b282612587565b9050919050565b6125c2816125a7565b81146125cd57600080fd5b50565b6000813590506125df816125b9565b92915050565b6000602082840312156125fb576125fa61257d565b5b6000612609848285016125d0565b91505092915050565b6000819050919050565b61262581612612565b82525050565b6000602082019050612640600083018461261c565b92915050565b61264f81612612565b811461265a57600080fd5b50565b60008135905061266c81612646565b92915050565b600080fd5b600080fd5b600080fd5b60008083601f84011261269757612696612672565b5b8235905067ffffffffffffffff8111156126b4576126b3612677565b5b6020830191508360018202830111156126d0576126cf61267c565b5b9250929050565b600080600080606085870312156126f1576126f061257d565b5b60006126ff878288016125d0565b94505060206127108782880161265d565b935050604085013567ffffffffffffffff81111561273157612730612582565b5b61273d87828801612681565b925092505092959194509250565b6000601f19601f8301169050919050565b7f4e487b7100000000000000000000000000000000000000000000000000000000600052604160045260246000fd5b6127948261274b565b810181811067ffffffffffffffff821117156127b3576127b261275c565b5b80604052505050565b60006127c6612573565b90506127d2828261278b565b919050565b600067ffffffffffffffff8211156127f2576127f161275c565b5b602082029050602081019050919050565b6000612816612811846127d7565b6127bc565b905080838252602082019050602084028301858111156128395761283861267c565b5b835b81811015612862578061284e888261265d565b84526020840193505060208101905061283b565b5050509392505050565b600082601f83011261288157612880612672565b5b8135612891848260208601612803565b91505092915050565b600080604083850312156128b1576128b061257d565b5b60006128bf8582860161265d565b925050602083013567ffffffffffffffff8111156128e0576128df612582565b5b6128ec8582860161286c565b9150509250929050565b600080600080608085870312156129105761290f61257d565b5b600061291e8782880161265d565b945050602061292f878288016125d0565b9350506040612940878288016125d0565b92505060606129518782880161265d565b91505092959194509250565b6000806000606084860312156129765761297561257d565b5b60006129848682870161265d565b9350506020612995868287016125d0565b92505060406129a68682870161265d565b9150509250925092565b60008115159050919050565b6129c5816129b0565b82525050565b60006020820190506129e060008301846129bc565b92915050565b6000602082840312156129fc576129fb61257d565b5b6000612a0a8482850161265d565b91505092915050565b612a1c816125a7565b82525050565b612a2b81612612565b82525050565b606082016000820151612a476000850182612a13565b506020820151612a5a6020850182612a22565b506040820151612a6d6040850182612a13565b50505050565b6000606082019050612a886000830184612a31565b92915050565b612a97816125a7565b82525050565b6000602082019050612ab26000830184612a8e565b92915050565b600080600060408486031215612ad157612ad061257d565b5b6000612adf8682870161265d565b935050602084013567ffffffffffffffff811115612b0057612aff612582565b5b612b0c86828701612681565b92509250509250925092565b600081519050919050565b600082825260208201905092915050565b60005b83811015612b52578082015181840152602081019050612b37565b83811115612b61576000848401525b50505050565b6000612b7282612b18565b612b7c8185612b23565b9350612b8c818560208601612b34565b612b958161274b565b840191505092915050565b60006020820190508181036000830152612bba8184612b67565b905092915050565b6000604082019050612bd760008301856129bc565b612be460208301846129bc565b9392505050565b600081519050919050565b600082825260208201905092915050565b6000819050602082019050919050565b6000612c238383612a22565b60208301905092915050565b6000602082019050919050565b6000612c4782612beb565b612c518185612bf6565b9350612c5c83612c07565b8060005b83811015612c8d578151612c748882612c17565b9750612c7f83612c2f565b925050600181019050612c60565b5085935050505092915050565b6000604082019050612caf60008301856129bc565b8181036020830152612cc18184612c3c565b90509392505050565b60008060408385031215612ce157612ce061257d565b5b6000612cef858286016125d0565b9250506020612d008582860161265d565b9150509250929050565b600082825260208201905092915050565b7f4d757374206265206f776e657200000000000000000000000000000000000000600082015250565b6000612d51600d83612d0a565b9150612d5c82612d1b565b602082019050919050565b60006020820190508181036000830152612d8081612d44565b9050919050565b7f4e487b7100000000000000000000000000000000000000000000000000000000600052601160045260246000fd5b6000612dc182612612565b9150612dcc83612612565b9250817fffffffffffffffffffffffffffffffffffffffffffffffffffffffffffffffff0483118215151615612e0557612e04612d87565b5b828202905092915050565b7f4e487b7100000000000000000000000000000000000000000000000000000000600052601260045260246000fd5b6000612e4a82612612565b9150612e5583612612565b925082612e6557612e64612e10565b5b828204905092915050565b6000612e7b82612612565b9150612e8683612612565b925082821015612e9957612e98612d87565b5b828203905092915050565b6000612eaf82612612565b9150612eba83612612565b9250827fffffffffffffffffffffffffffffffffffffffffffffffffffffffffffffffff03821115612eef57612eee612d87565b5b828201905092915050565b6000612f0582612612565b91507fffffffffffffffffffffffffffffffffffffffffffffffffffffffffffffffff821415612f3857612f37612d87565b5b600182019050919050565b6000612f4e82612612565b9150612f5983612612565b925082612f6957612f68612e10565b5b828206905092915050565b6000604082019050612f896000830185612a8e565b612f966020830184612a8e565b9392505050565b600081905092915050565b50565b6000612fb8600083612f9d565b9150612fc382612fa8565b600082019050919050565b6000612fd982612fab565b9150819050919050565b600081519050612ff2816125b9565b92915050565b60006020828403121561300e5761300d61257d565b5b600061301c84828501612fe3565b91505092915050565b60008151905061303481612646565b92915050565b6000602082840312156130505761304f61257d565b5b600061305e84828501613025565b91505092915050565b600061307282612587565b9050919050565b61308281613067565b811461308d57600080fd5b50565b60008135905061309f81613079565b92915050565b6000806000606084860312156130be576130bd61257d565b5b60006130cc8682870161265d565b93505060206130dd86828701613090565b92505060406130ee86828701613090565b9150509250925092565b7f72657175657374206e6f7420666f756e64000000000000000000000000000000600082015250565b600061312e601183612d0a565b9150613139826130f8565b602082019050919050565b6000602082019050818103600083015261315d81613121565b9050919050565b6000806040838503121561317b5761317a61257d565b5b600061318985828601613090565b925050602061319a8582860161265d565b9150509250929050565b600061ffff82169050919050565b6131bb816131a4565b81146131c657600080fd5b50565b6000815190506131d8816131b2565b92915050565b600080604083850312156131f5576131f461257d565b5b600061320385828601612fe3565b9250506020613214858286016131c9565b9150509250929050565b6000819050919050565b6132318161321e565b82525050565b600067ffffffffffffffff82169050919050565b61325481613237565b82525050565b613263816131a4565b82525050565b600063ffffffff82169050919050565b61328281613269565b82525050565b600060a08201905061329d6000830188613228565b6132aa602083018761324b565b6132b7604083018661325a565b6132c46060830185613279565b6132d16080830184613279565b9695505050505050565b60006040820190506132f0600083018561261c565b6132fd6020830184613279565b9392505050565b6000604082019050613319600083018561261c565b818103602083015261332b8184612c3c565b90509392505050565b7f4e487b7100000000000000000000000000000000000000000000000000000000600052603260045260246000fd5b61336c816129b0565b811461337757600080fd5b50565b60008151905061338981613363565b92915050565b6000602082840312156133a5576133a461257d565b5b60006133b38482850161337a565b91505092915050565b600069ffffffffffffffffffff82169050919050565b6133db816133bc565b81146133e657600080fd5b50565b6000815190506133f8816133d2565b92915050565b6000819050919050565b613411816133fe565b811461341c57600080fd5b50565b60008151905061342e81613408565b92915050565b600080600080600060a086880312156134505761344f61257d565b5b600061345e888289016133e9565b955050602061346f8882890161341f565b945050604061348088828901613025565b935050606061349188828901613025565b92505060806134a2888289016133e9565b9150509295509295909350565b60006134ba826133fe565b91506134c5836133fe565b9250827f7fffffffffffffffffffffffffffffffffffffffffffffffffffffffffffffff048211600084136000841316161561350457613503612d87565b5b817f8000000000000000000000000000000000000000000000000000000000000000058312600084126000841316161561354157613540612d87565b5b827f8000000000000000000000000000000000000000000000000000000000000000058212600084136000841216161561357e5761357d612d87565b5b827f7fffffffffffffffffffffffffffffffffffffffffffffffffffffffffffffff05821260008412600084121616156135bb576135ba612d87565b5b82820290509291505056fea2646970667358221220d7b171817be96d7b66e024f11a0a087553ef838e39f691f9c86c995d869c3a1c64736f6c634300080a0033",
  "devdoc": {
    "author": "Lens Protocol",
    "kind": "dev",
    "methods": {
      "followModuleTransferHook(uint256,address,address,uint256)": {
        "details": "We don't need to execute any additional logic on transfers in this follow module."
      },
      "getBalance()": {
        "returns": {
          "_0": "balance"
        }
      },
      "getFlowmiCost()": {
        "returns": {
          "_0": "i_flowmiCost cost in dollars"
        }
      },
      "getFlowmiState()": {
        "returns": {
          "_0": "1"
        }
      },
      "getFollowerOfIndex(address,uint256)": {
        "params": {
          "_index": "is the index given to the follower when started flowmi following",
          "_profileid": "is the profile requested"
        },
        "returns": {
          "_0": "s_profileToFollowersCount in the profileid location"
        }
      },
      "getFundsToRaffle(address)": {
        "params": {
          "_profileid": "is the profile requested"
        },
        "returns": {
          "_0": "s_profileToFunds[_profileid] % i_goal, total amount of funds related to the profile \"modulo\" the goal of the raffle, so it only counts what haven't been raffled yet"
        }
      },
      "getGoal()": {
        "returns": {
          "_0": "i_goal uint containing the goal"
        }
      },
      "getLastWinnerAddress()": {
        "returns": {
          "_0": "s_recentWinner address of the last winner"
        }
      },
      "getLastWinnerIndex()": {
        "returns": {
          "_0": "s_indexOfWinner index of the last winner"
        }
      },
      "getNumberOfFollowers(address)": {
        "params": {
          "_profileid": "is the profile"
        },
        "returns": {
          "_0": "s_profileToFollowersCount of the profile"
        }
      },
      "getPriceFeed()": {
        "returns": {
          "_0": "i_flowmiCost.getConversionRate(i_priceFeed)"
        }
      },
      "getProfileData(uint256)": {
        "params": {
          "profileId": "The token ID of the profile to query."
        },
        "returns": {
          "_0": "ProfileData The ProfileData struct mapped to that profile."
        }
      },
      "getProfileToRaffles(address)": {
        "params": {
          "_profileid": "is the profile requested"
        },
        "returns": {
          "_0": "s_profileToRaffles[_profileid], total amount of raffles delivered"
        }
      },
      "getProfileToWins(address)": {
        "params": {
          "_profileid": "is the profile requested"
        },
        "returns": {
          "_0": "s_profileToWins[_profileid], total amount of raffles won"
        }
      },
      "getTotalFundedProfile(address)": {
        "params": {
          "_profileid": "is the profile requested"
        },
        "returns": {
          "_0": "s_profileToFunds[_profileid], total amount of funds related to the profile"
        }
      },
      "initializeFollowModule(uint256,bytes)": {
        "params": {
          "data": "The arbitrary data parameter, decoded into:      address currency: The currency address, must be internally whitelisted.      uint256 amount: The currency total amount to levy.      address recipient: The custom recipient address to direct earnings to.",
          "profileId": "The profile ID of the profile to initialize this module for."
        },
        "returns": {
          "_0": "bytes An abi encoded bytes parameter, which is the same as the passed data parameter."
        }
      },
      "isRegisteredProfile(address)": {
        "params": {
          "_profileid": "is the address of the profile"
        }
      },
      "processFollow(address,uint256,bytes)": {
        "details": "Processes a follow by:  1. Charging a fee"
      }
    },
    "title": "FeeFollowModule",
    "version": 1
  },
  "userdoc": {
    "kind": "user",
    "methods": {
      "getBalance()": {
        "notice": "Gets the balance in the flowmi account"
      },
      "getFlowmiCost()": {
        "notice": "Get the flowmi follow cost"
      },
      "getFlowmiState()": {
        "notice": "Get a 1 if the contract is deployed"
      },
      "getFollowerOfIndex(address,uint256)": {
        "notice": "Gets the address of a follower by index of flowmi follow"
      },
      "getFundsToRaffle(address)": {
        "notice": "Gets funds a profile has to give in the next raffle"
      },
      "getGoal()": {
        "notice": "Retrieve the goal of followers when the raffle is activated"
      },
      "getLastWinnerAddress()": {
        "notice": "Gets the latest winner address"
      },
      "getLastWinnerIndex()": {
        "notice": "Gets the latest winner index"
      },
      "getNumberOfFollowers(address)": {
        "notice": "Gets the number of followers a profile has"
      },
      "getPool()": {
        "notice": "Let's you know how much is in aave protocol"
      },
      "getPriceFeed()": {
        "notice": "Gets the conversion in matic for 1 usd"
      },
      "getProfileData(uint256)": {
        "notice": "Returns the profile data for a given profile, or an empty struct if that profile was not initialized with this module."
      },
      "getProfileToRaffles(address)": {
        "notice": "Gets total raffles a profile has made"
      },
      "getProfileToWins(address)": {
        "notice": "Gets total wins a profile has"
      },
      "getTotalFundedProfile(address)": {
        "notice": "Gets total funds a profile has been given"
      },
      "initializeFollowModule(uint256,bytes)": {
        "notice": "This follow module levies a fee on follows."
      },
      "isFollowing(uint256,address,uint256)": {
        "notice": "Standard function to validate follow NFT ownership. This module is agnostic to follow NFT token IDs and other properties."
      },
      "isRegisteredProfile(address)": {
        "notice": "Let's you know if a profile is a flowmi registered profile"
      },
      "registerProfile()": {
        "notice": "This function registers a profile"
      },
      "unregisterProfile()": {
        "notice": "Unregisters a profile making the mapping value false"
      },
      "withdraw()": {
        "notice": "To witdraw the total amount of funds flowmi account has to the deployer"
      }
    },
    "notice": "This is a simple Lens FollowModule implementation, inheriting from the IFollowModule interface, but with additional variables that can be controlled by governance, such as the governance & treasury addresses as well as the treasury fee.",
    "version": 1
  },
  "storageLayout": {
    "storage": [
      {
        "astId": 11364,
        "contract": "contracts/core/modules/follow/FlowmiFollowModule.sol:FlowmiFollowModule",
        "label": "s_raffleState",
        "offset": 0,
        "slot": "0",
        "type": "t_enum(RaffleState)11361"
      },
      {
        "astId": 11380,
        "contract": "contracts/core/modules/follow/FlowmiFollowModule.sol:FlowmiFollowModule",
        "label": "i_priceFeed",
        "offset": 1,
        "slot": "0",
        "type": "t_contract(AggregatorV3Interface)103"
      },
      {
        "astId": 11383,
        "contract": "contracts/core/modules/follow/FlowmiFollowModule.sol:FlowmiFollowModule",
        "label": "i_vrfCoordinator",
        "offset": 0,
        "slot": "1",
        "type": "t_contract(VRFCoordinatorV2Interface)192"
      },
      {
        "astId": 11408,
        "contract": "contracts/core/modules/follow/FlowmiFollowModule.sol:FlowmiFollowModule",
        "label": "s_requests",
        "offset": 0,
        "slot": "2",
        "type": "t_mapping(t_uint256,t_struct(RequestStatus)11403_storage)"
      },
      {
        "astId": 11411,
        "contract": "contracts/core/modules/follow/FlowmiFollowModule.sol:FlowmiFollowModule",
        "label": "requestIds",
        "offset": 0,
        "slot": "3",
        "type": "t_array(t_uint256)dyn_storage"
      },
      {
        "astId": 11413,
        "contract": "contracts/core/modules/follow/FlowmiFollowModule.sol:FlowmiFollowModule",
        "label": "lastRequestId",
        "offset": 0,
        "slot": "4",
        "type": "t_uint256"
      },
      {
        "astId": 11428,
        "contract": "contracts/core/modules/follow/FlowmiFollowModule.sol:FlowmiFollowModule",
        "label": "s_index",
        "offset": 0,
        "slot": "5",
        "type": "t_uint256"
      },
      {
        "astId": 11430,
        "contract": "contracts/core/modules/follow/FlowmiFollowModule.sol:FlowmiFollowModule",
        "label": "s_indexOfWinner",
        "offset": 0,
        "slot": "6",
        "type": "t_uint256"
      },
      {
        "astId": 11432,
        "contract": "contracts/core/modules/follow/FlowmiFollowModule.sol:FlowmiFollowModule",
        "label": "profileid",
        "offset": 0,
        "slot": "7",
        "type": "t_address_payable"
      },
      {
        "astId": 11434,
        "contract": "contracts/core/modules/follow/FlowmiFollowModule.sol:FlowmiFollowModule",
        "label": "s_recentWinner",
        "offset": 0,
        "slot": "8",
        "type": "t_address_payable"
      },
      {
        "astId": 11436,
        "contract": "contracts/core/modules/follow/FlowmiFollowModule.sol:FlowmiFollowModule",
        "label": "i_flowmiOwner",
        "offset": 0,
        "slot": "9",
        "type": "t_address_payable"
      },
      {
        "astId": 11442,
        "contract": "contracts/core/modules/follow/FlowmiFollowModule.sol:FlowmiFollowModule",
        "label": "s_profileToFollowers",
        "offset": 0,
        "slot": "10",
        "type": "t_mapping(t_address,t_mapping(t_uint256,t_address_payable))"
      },
      {
        "astId": 11446,
        "contract": "contracts/core/modules/follow/FlowmiFollowModule.sol:FlowmiFollowModule",
        "label": "s_profileToFollowersCount",
        "offset": 0,
        "slot": "11",
        "type": "t_mapping(t_address,t_uint256)"
      },
      {
        "astId": 11450,
        "contract": "contracts/core/modules/follow/FlowmiFollowModule.sol:FlowmiFollowModule",
        "label": "s_profileToFunds",
        "offset": 0,
        "slot": "12",
        "type": "t_mapping(t_address,t_uint256)"
      },
      {
        "astId": 11454,
        "contract": "contracts/core/modules/follow/FlowmiFollowModule.sol:FlowmiFollowModule",
        "label": "s_profileIsFlowmi",
        "offset": 0,
        "slot": "13",
        "type": "t_mapping(t_address,t_bool)"
      },
      {
        "astId": 11458,
        "contract": "contracts/core/modules/follow/FlowmiFollowModule.sol:FlowmiFollowModule",
        "label": "s_profileToWins",
        "offset": 0,
        "slot": "14",
        "type": "t_mapping(t_address,t_uint256)"
      },
      {
        "astId": 11462,
        "contract": "contracts/core/modules/follow/FlowmiFollowModule.sol:FlowmiFollowModule",
        "label": "s_profileToRaffles",
        "offset": 0,
        "slot": "15",
        "type": "t_mapping(t_address,t_uint256)"
      },
      {
        "astId": 11471,
        "contract": "contracts/core/modules/follow/FlowmiFollowModule.sol:FlowmiFollowModule",
        "label": "_dataByProfile",
        "offset": 0,
        "slot": "16",
        "type": "t_mapping(t_uint256,t_struct(ProfileData)11348_storage)"
      }
    ],
    "types": {
      "t_address": {
        "encoding": "inplace",
        "label": "address",
        "numberOfBytes": "20"
      },
      "t_address_payable": {
        "encoding": "inplace",
        "label": "address payable",
        "numberOfBytes": "20"
      },
      "t_array(t_uint256)dyn_storage": {
        "base": "t_uint256",
        "encoding": "dynamic_array",
        "label": "uint256[]",
        "numberOfBytes": "32"
      },
      "t_bool": {
        "encoding": "inplace",
        "label": "bool",
        "numberOfBytes": "1"
      },
      "t_contract(AggregatorV3Interface)103": {
        "encoding": "inplace",
        "label": "contract AggregatorV3Interface",
        "numberOfBytes": "20"
      },
      "t_contract(VRFCoordinatorV2Interface)192": {
        "encoding": "inplace",
        "label": "contract VRFCoordinatorV2Interface",
        "numberOfBytes": "20"
      },
      "t_enum(RaffleState)11361": {
        "encoding": "inplace",
        "label": "enum FlowmiFollowModule.RaffleState",
        "numberOfBytes": "1"
      },
      "t_mapping(t_address,t_bool)": {
        "encoding": "mapping",
        "key": "t_address",
        "label": "mapping(address => bool)",
        "numberOfBytes": "32",
        "value": "t_bool"
      },
      "t_mapping(t_address,t_mapping(t_uint256,t_address_payable))": {
        "encoding": "mapping",
        "key": "t_address",
        "label": "mapping(address => mapping(uint256 => address payable))",
        "numberOfBytes": "32",
        "value": "t_mapping(t_uint256,t_address_payable)"
      },
      "t_mapping(t_address,t_uint256)": {
        "encoding": "mapping",
        "key": "t_address",
        "label": "mapping(address => uint256)",
        "numberOfBytes": "32",
        "value": "t_uint256"
      },
      "t_mapping(t_uint256,t_address_payable)": {
        "encoding": "mapping",
        "key": "t_uint256",
        "label": "mapping(uint256 => address payable)",
        "numberOfBytes": "32",
        "value": "t_address_payable"
      },
      "t_mapping(t_uint256,t_struct(ProfileData)11348_storage)": {
        "encoding": "mapping",
        "key": "t_uint256",
        "label": "mapping(uint256 => struct ProfileData)",
        "numberOfBytes": "32",
        "value": "t_struct(ProfileData)11348_storage"
      },
      "t_mapping(t_uint256,t_struct(RequestStatus)11403_storage)": {
        "encoding": "mapping",
        "key": "t_uint256",
        "label": "mapping(uint256 => struct FlowmiFollowModule.RequestStatus)",
        "numberOfBytes": "32",
        "value": "t_struct(RequestStatus)11403_storage"
      },
      "t_struct(ProfileData)11348_storage": {
        "encoding": "inplace",
        "label": "struct ProfileData",
        "members": [
          {
            "astId": 11343,
            "contract": "contracts/core/modules/follow/FlowmiFollowModule.sol:FlowmiFollowModule",
            "label": "currency",
            "offset": 0,
            "slot": "0",
            "type": "t_address"
          },
          {
            "astId": 11345,
            "contract": "contracts/core/modules/follow/FlowmiFollowModule.sol:FlowmiFollowModule",
            "label": "amount",
            "offset": 0,
            "slot": "1",
            "type": "t_uint256"
          },
          {
            "astId": 11347,
            "contract": "contracts/core/modules/follow/FlowmiFollowModule.sol:FlowmiFollowModule",
            "label": "recipient",
            "offset": 0,
            "slot": "2",
            "type": "t_address"
          }
        ],
        "numberOfBytes": "96"
      },
      "t_struct(RequestStatus)11403_storage": {
        "encoding": "inplace",
        "label": "struct FlowmiFollowModule.RequestStatus",
        "members": [
          {
            "astId": 11397,
            "contract": "contracts/core/modules/follow/FlowmiFollowModule.sol:FlowmiFollowModule",
            "label": "fulfilled",
            "offset": 0,
            "slot": "0",
            "type": "t_bool"
          },
          {
            "astId": 11399,
            "contract": "contracts/core/modules/follow/FlowmiFollowModule.sol:FlowmiFollowModule",
            "label": "exists",
            "offset": 1,
            "slot": "0",
            "type": "t_bool"
          },
          {
            "astId": 11402,
            "contract": "contracts/core/modules/follow/FlowmiFollowModule.sol:FlowmiFollowModule",
            "label": "randomWords",
            "offset": 0,
            "slot": "1",
            "type": "t_array(t_uint256)dyn_storage"
          }
        ],
        "numberOfBytes": "64"
      },
      "t_uint256": {
        "encoding": "inplace",
        "label": "uint256",
        "numberOfBytes": "32"
      }
    }
  }
}